{
	"Two Chain/greeterL2.sol": {
		"Greeter": {
			"abi": [
				{
					"inputs": [
						{
							"internalType": "string",
							"name": "_greeting",
							"type": "string"
						}
					],
					"stateMutability": "nonpayable",
					"type": "constructor"
				},
				{
					"anonymous": false,
					"inputs": [
						{
							"indexed": false,
							"internalType": "address",
							"name": "sender",
							"type": "address"
						},
						{
							"indexed": false,
							"internalType": "address",
							"name": "origin",
							"type": "address"
						},
						{
							"indexed": false,
							"internalType": "address",
							"name": "xorigin",
							"type": "address"
						},
						{
							"indexed": false,
							"internalType": "address",
							"name": "user",
							"type": "address"
						},
						{
							"indexed": false,
							"internalType": "string",
							"name": "greeting",
							"type": "string"
						}
					],
					"name": "SetGreeting",
					"type": "event"
				},
				{
					"inputs": [],
					"name": "greet",
					"outputs": [
						{
							"internalType": "string",
							"name": "",
							"type": "string"
						}
					],
					"stateMutability": "view",
					"type": "function"
				},
				{
					"inputs": [
						{
							"internalType": "string",
							"name": "_greeting",
							"type": "string"
						},
						{
							"internalType": "address",
							"name": "_user",
							"type": "address"
						}
					],
					"name": "setGreeting",
					"outputs": [],
					"stateMutability": "nonpayable",
					"type": "function"
				},
				{
					"inputs": [
						{
							"internalType": "string",
							"name": "_greeting",
							"type": "string"
						}
					],
					"name": "setGreeting",
					"outputs": [],
					"stateMutability": "nonpayable",
					"type": "function"
				}
			],
			"devdoc": {
				"kind": "dev",
				"methods": {},
				"version": 1
			},
			"evm": {
				"assembly": "    /* \"Two Chain/greeterL2.sol\":1198:2870  contract Greeter {... */\n  mstore(0x40, 0x80)\n    /* \"Two Chain/greeterL2.sol\":1494:1562  constructor(string memory _greeting) {... */\n  callvalue\n  dup1\n  iszero\n  tag_1\n  jumpi\n  0x00\n  dup1\n  revert\ntag_1:\n  pop\n  mload(0x40)\n  sub(codesize, bytecodeSize)\n  dup1\n  bytecodeSize\n  dup4\n  codecopy\n  dup2\n  dup2\n  add\n  0x40\n  mstore\n  dup2\n  add\n  swap1\n  tag_2\n  swap2\n  swap1\n  tag_3\n  jump\t// in\ntag_2:\n    /* \"Two Chain/greeterL2.sol\":1548:1557  _greeting */\n  dup1\n    /* \"Two Chain/greeterL2.sol\":1537:1545  greeting */\n  0x00\n    /* \"Two Chain/greeterL2.sol\":1537:1557  greeting = _greeting */\n  swap1\n  dup2\n  tag_6\n  swap2\n  swap1\n  tag_7\n  jump\t// in\ntag_6:\n  pop\n    /* \"Two Chain/greeterL2.sol\":1494:1562  constructor(string memory _greeting) {... */\n  pop\n    /* \"Two Chain/greeterL2.sol\":1198:2870  contract Greeter {... */\n  jump(tag_8)\n    /* \"#utility.yul\":7:82   */\ntag_9:\n    /* \"#utility.yul\":40:46   */\n  0x00\n    /* \"#utility.yul\":73:75   */\n  0x40\n    /* \"#utility.yul\":67:76   */\n  mload\n    /* \"#utility.yul\":57:76   */\n  swap1\n  pop\n    /* \"#utility.yul\":7:82   */\n  swap1\n  jump\t// out\n    /* \"#utility.yul\":88:205   */\ntag_10:\n    /* \"#utility.yul\":197:198   */\n  0x00\n    /* \"#utility.yul\":194:195   */\n  dup1\n    /* \"#utility.yul\":187:199   */\n  revert\n    /* \"#utility.yul\":211:328   */\ntag_11:\n    /* \"#utility.yul\":320:321   */\n  0x00\n    /* \"#utility.yul\":317:318   */\n  dup1\n    /* \"#utility.yul\":310:322   */\n  revert\n    /* \"#utility.yul\":334:451   */\ntag_12:\n    /* \"#utility.yul\":443:444   */\n  0x00\n    /* \"#utility.yul\":440:441   */\n  dup1\n    /* \"#utility.yul\":433:445   */\n  revert\n    /* \"#utility.yul\":457:574   */\ntag_13:\n    /* \"#utility.yul\":566:567   */\n  0x00\n    /* \"#utility.yul\":563:564   */\n  dup1\n    /* \"#utility.yul\":556:568   */\n  revert\n    /* \"#utility.yul\":580:682   */\ntag_14:\n    /* \"#utility.yul\":621:627   */\n  0x00\n    /* \"#utility.yul\":672:674   */\n  0x1f\n    /* \"#utility.yul\":668:675   */\n  not\n    /* \"#utility.yul\":663:665   */\n  0x1f\n    /* \"#utility.yul\":656:661   */\n  dup4\n    /* \"#utility.yul\":652:666   */\n  add\n    /* \"#utility.yul\":648:676   */\n  and\n    /* \"#utility.yul\":638:676   */\n  swap1\n  pop\n    /* \"#utility.yul\":580:682   */\n  swap2\n  swap1\n  pop\n  jump\t// out\n    /* \"#utility.yul\":688:868   */\ntag_15:\n    /* \"#utility.yul\":736:813   */\n  0x4e487b7100000000000000000000000000000000000000000000000000000000\n    /* \"#utility.yul\":733:734   */\n  0x00\n    /* \"#utility.yul\":726:814   */\n  mstore\n    /* \"#utility.yul\":833:837   */\n  0x41\n    /* \"#utility.yul\":830:831   */\n  0x04\n    /* \"#utility.yul\":823:838   */\n  mstore\n    /* \"#utility.yul\":857:861   */\n  0x24\n    /* \"#utility.yul\":854:855   */\n  0x00\n    /* \"#utility.yul\":847:862   */\n  revert\n    /* \"#utility.yul\":874:1155   */\ntag_16:\n    /* \"#utility.yul\":957:984   */\n  tag_50\n    /* \"#utility.yul\":979:983   */\n  dup3\n    /* \"#utility.yul\":957:984   */\n  tag_14\n  jump\t// in\ntag_50:\n    /* \"#utility.yul\":949:955   */\n  dup2\n    /* \"#utility.yul\":945:985   */\n  add\n    /* \"#utility.yul\":1087:1093   */\n  dup2\n    /* \"#utility.yul\":1075:1085   */\n  dup2\n    /* \"#utility.yul\":1072:1094   */\n  lt\n    /* \"#utility.yul\":1051:1069   */\n  0xffffffffffffffff\n    /* \"#utility.yul\":1039:1049   */\n  dup3\n    /* \"#utility.yul\":1036:1070   */\n  gt\n    /* \"#utility.yul\":1033:1095   */\n  or\n    /* \"#utility.yul\":1030:1118   */\n  iszero\n  tag_51\n  jumpi\n    /* \"#utility.yul\":1098:1116   */\n  tag_52\n  tag_15\n  jump\t// in\ntag_52:\n    /* \"#utility.yul\":1030:1118   */\ntag_51:\n    /* \"#utility.yul\":1138:1148   */\n  dup1\n    /* \"#utility.yul\":1134:1136   */\n  0x40\n    /* \"#utility.yul\":1127:1149   */\n  mstore\n    /* \"#utility.yul\":917:1155   */\n  pop\n    /* \"#utility.yul\":874:1155   */\n  pop\n  pop\n  jump\t// out\n    /* \"#utility.yul\":1161:1290   */\ntag_17:\n    /* \"#utility.yul\":1195:1201   */\n  0x00\n    /* \"#utility.yul\":1222:1242   */\n  tag_54\n  tag_9\n  jump\t// in\ntag_54:\n    /* \"#utility.yul\":1212:1242   */\n  swap1\n  pop\n    /* \"#utility.yul\":1251:1284   */\n  tag_55\n    /* \"#utility.yul\":1279:1283   */\n  dup3\n    /* \"#utility.yul\":1271:1277   */\n  dup3\n    /* \"#utility.yul\":1251:1284   */\n  tag_16\n  jump\t// in\ntag_55:\n    /* \"#utility.yul\":1161:1290   */\n  swap2\n  swap1\n  pop\n  jump\t// out\n    /* \"#utility.yul\":1296:1604   */\ntag_18:\n    /* \"#utility.yul\":1358:1362   */\n  0x00\n    /* \"#utility.yul\":1448:1466   */\n  0xffffffffffffffff\n    /* \"#utility.yul\":1440:1446   */\n  dup3\n    /* \"#utility.yul\":1437:1467   */\n  gt\n    /* \"#utility.yul\":1434:1490   */\n  iszero\n  tag_57\n  jumpi\n    /* \"#utility.yul\":1470:1488   */\n  tag_58\n  tag_15\n  jump\t// in\ntag_58:\n    /* \"#utility.yul\":1434:1490   */\ntag_57:\n    /* \"#utility.yul\":1508:1537   */\n  tag_59\n    /* \"#utility.yul\":1530:1536   */\n  dup3\n    /* \"#utility.yul\":1508:1537   */\n  tag_14\n  jump\t// in\ntag_59:\n    /* \"#utility.yul\":1500:1537   */\n  swap1\n  pop\n    /* \"#utility.yul\":1592:1596   */\n  0x20\n    /* \"#utility.yul\":1586:1590   */\n  dup2\n    /* \"#utility.yul\":1582:1597   */\n  add\n    /* \"#utility.yul\":1574:1597   */\n  swap1\n  pop\n    /* \"#utility.yul\":1296:1604   */\n  swap2\n  swap1\n  pop\n  jump\t// out\n    /* \"#utility.yul\":1610:1856   */\ntag_19:\n    /* \"#utility.yul\":1691:1692   */\n  0x00\n    /* \"#utility.yul\":1701:1814   */\ntag_61:\n    /* \"#utility.yul\":1715:1721   */\n  dup4\n    /* \"#utility.yul\":1712:1713   */\n  dup2\n    /* \"#utility.yul\":1709:1722   */\n  lt\n    /* \"#utility.yul\":1701:1814   */\n  iszero\n  tag_63\n  jumpi\n    /* \"#utility.yul\":1800:1801   */\n  dup1\n    /* \"#utility.yul\":1795:1798   */\n  dup3\n    /* \"#utility.yul\":1791:1802   */\n  add\n    /* \"#utility.yul\":1785:1803   */\n  mload\n    /* \"#utility.yul\":1781:1782   */\n  dup2\n    /* \"#utility.yul\":1776:1779   */\n  dup5\n    /* \"#utility.yul\":1772:1783   */\n  add\n    /* \"#utility.yul\":1765:1804   */\n  mstore\n    /* \"#utility.yul\":1737:1739   */\n  0x20\n    /* \"#utility.yul\":1734:1735   */\n  dup2\n    /* \"#utility.yul\":1730:1740   */\n  add\n    /* \"#utility.yul\":1725:1740   */\n  swap1\n  pop\n    /* \"#utility.yul\":1701:1814   */\n  jump(tag_61)\ntag_63:\n    /* \"#utility.yul\":1848:1849   */\n  0x00\n    /* \"#utility.yul\":1839:1845   */\n  dup5\n    /* \"#utility.yul\":1834:1837   */\n  dup5\n    /* \"#utility.yul\":1830:1846   */\n  add\n    /* \"#utility.yul\":1823:1850   */\n  mstore\n    /* \"#utility.yul\":1672:1856   */\n  pop\n    /* \"#utility.yul\":1610:1856   */\n  pop\n  pop\n  pop\n  jump\t// out\n    /* \"#utility.yul\":1862:2296   */\ntag_20:\n    /* \"#utility.yul\":1951:1956   */\n  0x00\n    /* \"#utility.yul\":1976:2042   */\n  tag_65\n    /* \"#utility.yul\":1992:2041   */\n  tag_66\n    /* \"#utility.yul\":2034:2040   */\n  dup5\n    /* \"#utility.yul\":1992:2041   */\n  tag_18\n  jump\t// in\ntag_66:\n    /* \"#utility.yul\":1976:2042   */\n  tag_17\n  jump\t// in\ntag_65:\n    /* \"#utility.yul\":1967:2042   */\n  swap1\n  pop\n    /* \"#utility.yul\":2065:2071   */\n  dup3\n    /* \"#utility.yul\":2058:2063   */\n  dup2\n    /* \"#utility.yul\":2051:2072   */\n  mstore\n    /* \"#utility.yul\":2103:2107   */\n  0x20\n    /* \"#utility.yul\":2096:2101   */\n  dup2\n    /* \"#utility.yul\":2092:2108   */\n  add\n    /* \"#utility.yul\":2141:2144   */\n  dup5\n    /* \"#utility.yul\":2132:2138   */\n  dup5\n    /* \"#utility.yul\":2127:2130   */\n  dup5\n    /* \"#utility.yul\":2123:2139   */\n  add\n    /* \"#utility.yul\":2120:2145   */\n  gt\n    /* \"#utility.yul\":2117:2229   */\n  iszero\n  tag_67\n  jumpi\n    /* \"#utility.yul\":2148:2227   */\n  tag_68\n  tag_13\n  jump\t// in\ntag_68:\n    /* \"#utility.yul\":2117:2229   */\ntag_67:\n    /* \"#utility.yul\":2238:2290   */\n  tag_69\n    /* \"#utility.yul\":2283:2289   */\n  dup5\n    /* \"#utility.yul\":2278:2281   */\n  dup3\n    /* \"#utility.yul\":2273:2276   */\n  dup6\n    /* \"#utility.yul\":2238:2290   */\n  tag_19\n  jump\t// in\ntag_69:\n    /* \"#utility.yul\":1957:2296   */\n  pop\n    /* \"#utility.yul\":1862:2296   */\n  swap4\n  swap3\n  pop\n  pop\n  pop\n  jump\t// out\n    /* \"#utility.yul\":2316:2671   */\ntag_21:\n    /* \"#utility.yul\":2383:2388   */\n  0x00\n    /* \"#utility.yul\":2432:2435   */\n  dup3\n    /* \"#utility.yul\":2425:2429   */\n  0x1f\n    /* \"#utility.yul\":2417:2423   */\n  dup4\n    /* \"#utility.yul\":2413:2430   */\n  add\n    /* \"#utility.yul\":2409:2436   */\n  slt\n    /* \"#utility.yul\":2399:2521   */\n  tag_71\n  jumpi\n    /* \"#utility.yul\":2440:2519   */\n  tag_72\n  tag_12\n  jump\t// in\ntag_72:\n    /* \"#utility.yul\":2399:2521   */\ntag_71:\n    /* \"#utility.yul\":2550:2556   */\n  dup2\n    /* \"#utility.yul\":2544:2557   */\n  mload\n    /* \"#utility.yul\":2575:2665   */\n  tag_73\n    /* \"#utility.yul\":2661:2664   */\n  dup5\n    /* \"#utility.yul\":2653:2659   */\n  dup3\n    /* \"#utility.yul\":2646:2650   */\n  0x20\n    /* \"#utility.yul\":2638:2644   */\n  dup7\n    /* \"#utility.yul\":2634:2651   */\n  add\n    /* \"#utility.yul\":2575:2665   */\n  tag_20\n  jump\t// in\ntag_73:\n    /* \"#utility.yul\":2566:2665   */\n  swap2\n  pop\n    /* \"#utility.yul\":2389:2671   */\n  pop\n    /* \"#utility.yul\":2316:2671   */\n  swap3\n  swap2\n  pop\n  pop\n  jump\t// out\n    /* \"#utility.yul\":2677:3201   */\ntag_3:\n    /* \"#utility.yul\":2757:2763   */\n  0x00\n    /* \"#utility.yul\":2806:2808   */\n  0x20\n    /* \"#utility.yul\":2794:2803   */\n  dup3\n    /* \"#utility.yul\":2785:2792   */\n  dup5\n    /* \"#utility.yul\":2781:2804   */\n  sub\n    /* \"#utility.yul\":2777:2809   */\n  slt\n    /* \"#utility.yul\":2774:2893   */\n  iszero\n  tag_75\n  jumpi\n    /* \"#utility.yul\":2812:2891   */\n  tag_76\n  tag_10\n  jump\t// in\ntag_76:\n    /* \"#utility.yul\":2774:2893   */\ntag_75:\n    /* \"#utility.yul\":2953:2954   */\n  0x00\n    /* \"#utility.yul\":2942:2951   */\n  dup3\n    /* \"#utility.yul\":2938:2955   */\n  add\n    /* \"#utility.yul\":2932:2956   */\n  mload\n    /* \"#utility.yul\":2983:3001   */\n  0xffffffffffffffff\n    /* \"#utility.yul\":2975:2981   */\n  dup2\n    /* \"#utility.yul\":2972:3002   */\n  gt\n    /* \"#utility.yul\":2969:3086   */\n  iszero\n  tag_77\n  jumpi\n    /* \"#utility.yul\":3005:3084   */\n  tag_78\n  tag_11\n  jump\t// in\ntag_78:\n    /* \"#utility.yul\":2969:3086   */\ntag_77:\n    /* \"#utility.yul\":3110:3184   */\n  tag_79\n    /* \"#utility.yul\":3176:3183   */\n  dup5\n    /* \"#utility.yul\":3167:3173   */\n  dup3\n    /* \"#utility.yul\":3156:3165   */\n  dup6\n    /* \"#utility.yul\":3152:3174   */\n  add\n    /* \"#utility.yul\":3110:3184   */\n  tag_21\n  jump\t// in\ntag_79:\n    /* \"#utility.yul\":3100:3184   */\n  swap2\n  pop\n    /* \"#utility.yul\":2903:3194   */\n  pop\n    /* \"#utility.yul\":2677:3201   */\n  swap3\n  swap2\n  pop\n  pop\n  jump\t// out\n    /* \"#utility.yul\":3207:3306   */\ntag_22:\n    /* \"#utility.yul\":3259:3265   */\n  0x00\n    /* \"#utility.yul\":3293:3298   */\n  dup2\n    /* \"#utility.yul\":3287:3299   */\n  mload\n    /* \"#utility.yul\":3277:3299   */\n  swap1\n  pop\n    /* \"#utility.yul\":3207:3306   */\n  swap2\n  swap1\n  pop\n  jump\t// out\n    /* \"#utility.yul\":3312:3492   */\ntag_23:\n    /* \"#utility.yul\":3360:3437   */\n  0x4e487b7100000000000000000000000000000000000000000000000000000000\n    /* \"#utility.yul\":3357:3358   */\n  0x00\n    /* \"#utility.yul\":3350:3438   */\n  mstore\n    /* \"#utility.yul\":3457:3461   */\n  0x22\n    /* \"#utility.yul\":3454:3455   */\n  0x04\n    /* \"#utility.yul\":3447:3462   */\n  mstore\n    /* \"#utility.yul\":3481:3485   */\n  0x24\n    /* \"#utility.yul\":3478:3479   */\n  0x00\n    /* \"#utility.yul\":3471:3486   */\n  revert\n    /* \"#utility.yul\":3498:3818   */\ntag_24:\n    /* \"#utility.yul\":3542:3548   */\n  0x00\n    /* \"#utility.yul\":3579:3580   */\n  0x02\n    /* \"#utility.yul\":3573:3577   */\n  dup3\n    /* \"#utility.yul\":3569:3581   */\n  div\n    /* \"#utility.yul\":3559:3581   */\n  swap1\n  pop\n    /* \"#utility.yul\":3626:3627   */\n  0x01\n    /* \"#utility.yul\":3620:3624   */\n  dup3\n    /* \"#utility.yul\":3616:3628   */\n  and\n    /* \"#utility.yul\":3647:3665   */\n  dup1\n    /* \"#utility.yul\":3637:3718   */\n  tag_83\n  jumpi\n    /* \"#utility.yul\":3703:3707   */\n  0x7f\n    /* \"#utility.yul\":3695:3701   */\n  dup3\n    /* \"#utility.yul\":3691:3708   */\n  and\n    /* \"#utility.yul\":3681:3708   */\n  swap2\n  pop\n    /* \"#utility.yul\":3637:3718   */\ntag_83:\n    /* \"#utility.yul\":3765:3767   */\n  0x20\n    /* \"#utility.yul\":3757:3763   */\n  dup3\n    /* \"#utility.yul\":3754:3768   */\n  lt\n    /* \"#utility.yul\":3734:3752   */\n  dup2\n    /* \"#utility.yul\":3731:3769   */\n  sub\n    /* \"#utility.yul\":3728:3812   */\n  tag_84\n  jumpi\n    /* \"#utility.yul\":3784:3802   */\n  tag_85\n  tag_23\n  jump\t// in\ntag_85:\n    /* \"#utility.yul\":3728:3812   */\ntag_84:\n    /* \"#utility.yul\":3549:3818   */\n  pop\n    /* \"#utility.yul\":3498:3818   */\n  swap2\n  swap1\n  pop\n  jump\t// out\n    /* \"#utility.yul\":3824:3965   */\ntag_25:\n    /* \"#utility.yul\":3873:3877   */\n  0x00\n    /* \"#utility.yul\":3896:3899   */\n  dup2\n    /* \"#utility.yul\":3888:3899   */\n  swap1\n  pop\n    /* \"#utility.yul\":3919:3922   */\n  dup2\n    /* \"#utility.yul\":3916:3917   */\n  0x00\n    /* \"#utility.yul\":3909:3923   */\n  mstore\n    /* \"#utility.yul\":3953:3957   */\n  0x20\n    /* \"#utility.yul\":3950:3951   */\n  0x00\n    /* \"#utility.yul\":3940:3958   */\n  keccak256\n    /* \"#utility.yul\":3932:3958   */\n  swap1\n  pop\n    /* \"#utility.yul\":3824:3965   */\n  swap2\n  swap1\n  pop\n  jump\t// out\n    /* \"#utility.yul\":3971:4064   */\ntag_26:\n    /* \"#utility.yul\":4008:4014   */\n  0x00\n    /* \"#utility.yul\":4055:4057   */\n  0x20\n    /* \"#utility.yul\":4050:4052   */\n  0x1f\n    /* \"#utility.yul\":4043:4048   */\n  dup4\n    /* \"#utility.yul\":4039:4053   */\n  add\n    /* \"#utility.yul\":4035:4058   */\n  div\n    /* \"#utility.yul\":4025:4058   */\n  swap1\n  pop\n    /* \"#utility.yul\":3971:4064   */\n  swap2\n  swap1\n  pop\n  jump\t// out\n    /* \"#utility.yul\":4070:4177   */\ntag_27:\n    /* \"#utility.yul\":4114:4122   */\n  0x00\n    /* \"#utility.yul\":4164:4169   */\n  dup3\n    /* \"#utility.yul\":4158:4162   */\n  dup3\n    /* \"#utility.yul\":4154:4170   */\n  shl\n    /* \"#utility.yul\":4133:4170   */\n  swap1\n  pop\n    /* \"#utility.yul\":4070:4177   */\n  swap3\n  swap2\n  pop\n  pop\n  jump\t// out\n    /* \"#utility.yul\":4183:4576   */\ntag_28:\n    /* \"#utility.yul\":4252:4258   */\n  0x00\n    /* \"#utility.yul\":4302:4303   */\n  0x08\n    /* \"#utility.yul\":4290:4300   */\n  dup4\n    /* \"#utility.yul\":4286:4304   */\n  mul\n    /* \"#utility.yul\":4325:4422   */\n  tag_90\n    /* \"#utility.yul\":4355:4421   */\n  0xffffffffffffffffffffffffffffffffffffffffffffffffffffffffffffffff\n    /* \"#utility.yul\":4344:4353   */\n  dup3\n    /* \"#utility.yul\":4325:4422   */\n  tag_27\n  jump\t// in\ntag_90:\n    /* \"#utility.yul\":4443:4482   */\n  tag_91\n    /* \"#utility.yul\":4473:4481   */\n  dup7\n    /* \"#utility.yul\":4462:4471   */\n  dup4\n    /* \"#utility.yul\":4443:4482   */\n  tag_27\n  jump\t// in\ntag_91:\n    /* \"#utility.yul\":4431:4482   */\n  swap6\n  pop\n    /* \"#utility.yul\":4515:4519   */\n  dup1\n    /* \"#utility.yul\":4511:4520   */\n  not\n    /* \"#utility.yul\":4504:4509   */\n  dup5\n    /* \"#utility.yul\":4500:4521   */\n  and\n    /* \"#utility.yul\":4491:4521   */\n  swap4\n  pop\n    /* \"#utility.yul\":4564:4568   */\n  dup1\n    /* \"#utility.yul\":4554:4562   */\n  dup7\n    /* \"#utility.yul\":4550:4569   */\n  and\n    /* \"#utility.yul\":4543:4548   */\n  dup5\n    /* \"#utility.yul\":4540:4570   */\n  or\n    /* \"#utility.yul\":4530:4570   */\n  swap3\n  pop\n    /* \"#utility.yul\":4259:4576   */\n  pop\n  pop\n    /* \"#utility.yul\":4183:4576   */\n  swap4\n  swap3\n  pop\n  pop\n  pop\n  jump\t// out\n    /* \"#utility.yul\":4582:4659   */\ntag_29:\n    /* \"#utility.yul\":4619:4626   */\n  0x00\n    /* \"#utility.yul\":4648:4653   */\n  dup2\n    /* \"#utility.yul\":4637:4653   */\n  swap1\n  pop\n    /* \"#utility.yul\":4582:4659   */\n  swap2\n  swap1\n  pop\n  jump\t// out\n    /* \"#utility.yul\":4665:4725   */\ntag_30:\n    /* \"#utility.yul\":4693:4696   */\n  0x00\n    /* \"#utility.yul\":4714:4719   */\n  dup2\n    /* \"#utility.yul\":4707:4719   */\n  swap1\n  pop\n    /* \"#utility.yul\":4665:4725   */\n  swap2\n  swap1\n  pop\n  jump\t// out\n    /* \"#utility.yul\":4731:4873   */\ntag_31:\n    /* \"#utility.yul\":4781:4790   */\n  0x00\n    /* \"#utility.yul\":4814:4867   */\n  tag_95\n    /* \"#utility.yul\":4832:4866   */\n  tag_96\n    /* \"#utility.yul\":4841:4865   */\n  tag_97\n    /* \"#utility.yul\":4859:4864   */\n  dup5\n    /* \"#utility.yul\":4841:4865   */\n  tag_29\n  jump\t// in\ntag_97:\n    /* \"#utility.yul\":4832:4866   */\n  tag_30\n  jump\t// in\ntag_96:\n    /* \"#utility.yul\":4814:4867   */\n  tag_29\n  jump\t// in\ntag_95:\n    /* \"#utility.yul\":4801:4867   */\n  swap1\n  pop\n    /* \"#utility.yul\":4731:4873   */\n  swap2\n  swap1\n  pop\n  jump\t// out\n    /* \"#utility.yul\":4879:4954   */\ntag_32:\n    /* \"#utility.yul\":4922:4925   */\n  0x00\n    /* \"#utility.yul\":4943:4948   */\n  dup2\n    /* \"#utility.yul\":4936:4948   */\n  swap1\n  pop\n    /* \"#utility.yul\":4879:4954   */\n  swap2\n  swap1\n  pop\n  jump\t// out\n    /* \"#utility.yul\":4960:5229   */\ntag_33:\n    /* \"#utility.yul\":5070:5109   */\n  tag_100\n    /* \"#utility.yul\":5101:5108   */\n  dup4\n    /* \"#utility.yul\":5070:5109   */\n  tag_31\n  jump\t// in\ntag_100:\n    /* \"#utility.yul\":5131:5222   */\n  tag_101\n    /* \"#utility.yul\":5180:5221   */\n  tag_102\n    /* \"#utility.yul\":5204:5220   */\n  dup3\n    /* \"#utility.yul\":5180:5221   */\n  tag_32\n  jump\t// in\ntag_102:\n    /* \"#utility.yul\":5172:5178   */\n  dup5\n    /* \"#utility.yul\":5165:5169   */\n  dup5\n    /* \"#utility.yul\":5159:5170   */\n  sload\n    /* \"#utility.yul\":5131:5222   */\n  tag_28\n  jump\t// in\ntag_101:\n    /* \"#utility.yul\":5125:5129   */\n  dup3\n    /* \"#utility.yul\":5118:5223   */\n  sstore\n    /* \"#utility.yul\":5036:5229   */\n  pop\n    /* \"#utility.yul\":4960:5229   */\n  pop\n  pop\n  pop\n  jump\t// out\n    /* \"#utility.yul\":5235:5308   */\ntag_34:\n    /* \"#utility.yul\":5280:5283   */\n  0x00\n    /* \"#utility.yul\":5235:5308   */\n  swap1\n  jump\t// out\n    /* \"#utility.yul\":5314:5503   */\ntag_35:\n    /* \"#utility.yul\":5391:5423   */\n  tag_105\n  tag_34\n  jump\t// in\ntag_105:\n    /* \"#utility.yul\":5432:5497   */\n  tag_106\n    /* \"#utility.yul\":5490:5496   */\n  dup2\n    /* \"#utility.yul\":5482:5488   */\n  dup5\n    /* \"#utility.yul\":5476:5480   */\n  dup5\n    /* \"#utility.yul\":5432:5497   */\n  tag_33\n  jump\t// in\ntag_106:\n    /* \"#utility.yul\":5367:5503   */\n  pop\n    /* \"#utility.yul\":5314:5503   */\n  pop\n  pop\n  jump\t// out\n    /* \"#utility.yul\":5509:5695   */\ntag_36:\n    /* \"#utility.yul\":5569:5689   */\ntag_108:\n    /* \"#utility.yul\":5586:5589   */\n  dup2\n    /* \"#utility.yul\":5579:5584   */\n  dup2\n    /* \"#utility.yul\":5576:5590   */\n  lt\n    /* \"#utility.yul\":5569:5689   */\n  iszero\n  tag_110\n  jumpi\n    /* \"#utility.yul\":5640:5679   */\n  tag_111\n    /* \"#utility.yul\":5677:5678   */\n  0x00\n    /* \"#utility.yul\":5670:5675   */\n  dup3\n    /* \"#utility.yul\":5640:5679   */\n  tag_35\n  jump\t// in\ntag_111:\n    /* \"#utility.yul\":5613:5614   */\n  0x01\n    /* \"#utility.yul\":5606:5611   */\n  dup2\n    /* \"#utility.yul\":5602:5615   */\n  add\n    /* \"#utility.yul\":5593:5615   */\n  swap1\n  pop\n    /* \"#utility.yul\":5569:5689   */\n  jump(tag_108)\ntag_110:\n    /* \"#utility.yul\":5509:5695   */\n  pop\n  pop\n  jump\t// out\n    /* \"#utility.yul\":5701:6244   */\ntag_37:\n    /* \"#utility.yul\":5802:5804   */\n  0x1f\n    /* \"#utility.yul\":5797:5800   */\n  dup3\n    /* \"#utility.yul\":5794:5805   */\n  gt\n    /* \"#utility.yul\":5791:6237   */\n  iszero\n  tag_113\n  jumpi\n    /* \"#utility.yul\":5836:5874   */\n  tag_114\n    /* \"#utility.yul\":5868:5873   */\n  dup2\n    /* \"#utility.yul\":5836:5874   */\n  tag_25\n  jump\t// in\ntag_114:\n    /* \"#utility.yul\":5920:5949   */\n  tag_115\n    /* \"#utility.yul\":5938:5948   */\n  dup5\n    /* \"#utility.yul\":5920:5949   */\n  tag_26\n  jump\t// in\ntag_115:\n    /* \"#utility.yul\":5910:5918   */\n  dup2\n    /* \"#utility.yul\":5906:5950   */\n  add\n    /* \"#utility.yul\":6103:6105   */\n  0x20\n    /* \"#utility.yul\":6091:6101   */\n  dup6\n    /* \"#utility.yul\":6088:6106   */\n  lt\n    /* \"#utility.yul\":6085:6134   */\n  iszero\n  tag_116\n  jumpi\n    /* \"#utility.yul\":6124:6132   */\n  dup2\n    /* \"#utility.yul\":6109:6132   */\n  swap1\n  pop\n    /* \"#utility.yul\":6085:6134   */\ntag_116:\n    /* \"#utility.yul\":6147:6227   */\n  tag_117\n    /* \"#utility.yul\":6203:6225   */\n  tag_118\n    /* \"#utility.yul\":6221:6224   */\n  dup6\n    /* \"#utility.yul\":6203:6225   */\n  tag_26\n  jump\t// in\ntag_118:\n    /* \"#utility.yul\":6193:6201   */\n  dup4\n    /* \"#utility.yul\":6189:6226   */\n  add\n    /* \"#utility.yul\":6176:6187   */\n  dup3\n    /* \"#utility.yul\":6147:6227   */\n  tag_36\n  jump\t// in\ntag_117:\n    /* \"#utility.yul\":5806:6237   */\n  pop\n  pop\n    /* \"#utility.yul\":5791:6237   */\ntag_113:\n    /* \"#utility.yul\":5701:6244   */\n  pop\n  pop\n  pop\n  jump\t// out\n    /* \"#utility.yul\":6250:6367   */\ntag_38:\n    /* \"#utility.yul\":6304:6312   */\n  0x00\n    /* \"#utility.yul\":6354:6359   */\n  dup3\n    /* \"#utility.yul\":6348:6352   */\n  dup3\n    /* \"#utility.yul\":6344:6360   */\n  shr\n    /* \"#utility.yul\":6323:6360   */\n  swap1\n  pop\n    /* \"#utility.yul\":6250:6367   */\n  swap3\n  swap2\n  pop\n  pop\n  jump\t// out\n    /* \"#utility.yul\":6373:6542   */\ntag_39:\n    /* \"#utility.yul\":6417:6423   */\n  0x00\n    /* \"#utility.yul\":6450:6501   */\n  tag_121\n    /* \"#utility.yul\":6498:6499   */\n  0x00\n    /* \"#utility.yul\":6494:6500   */\n  not\n    /* \"#utility.yul\":6486:6491   */\n  dup5\n    /* \"#utility.yul\":6483:6484   */\n  0x08\n    /* \"#utility.yul\":6479:6492   */\n  mul\n    /* \"#utility.yul\":6450:6501   */\n  tag_38\n  jump\t// in\ntag_121:\n    /* \"#utility.yul\":6446:6502   */\n  not\n    /* \"#utility.yul\":6531:6535   */\n  dup1\n    /* \"#utility.yul\":6525:6529   */\n  dup4\n    /* \"#utility.yul\":6521:6536   */\n  and\n    /* \"#utility.yul\":6511:6536   */\n  swap2\n  pop\n    /* \"#utility.yul\":6424:6542   */\n  pop\n    /* \"#utility.yul\":6373:6542   */\n  swap3\n  swap2\n  pop\n  pop\n  jump\t// out\n    /* \"#utility.yul\":6547:6842   */\ntag_40:\n    /* \"#utility.yul\":6623:6627   */\n  0x00\n    /* \"#utility.yul\":6769:6798   */\n  tag_123\n    /* \"#utility.yul\":6794:6797   */\n  dup4\n    /* \"#utility.yul\":6788:6792   */\n  dup4\n    /* \"#utility.yul\":6769:6798   */\n  tag_39\n  jump\t// in\ntag_123:\n    /* \"#utility.yul\":6761:6798   */\n  swap2\n  pop\n    /* \"#utility.yul\":6831:6834   */\n  dup3\n    /* \"#utility.yul\":6828:6829   */\n  0x02\n    /* \"#utility.yul\":6824:6835   */\n  mul\n    /* \"#utility.yul\":6818:6822   */\n  dup3\n    /* \"#utility.yul\":6815:6836   */\n  or\n    /* \"#utility.yul\":6807:6836   */\n  swap1\n  pop\n    /* \"#utility.yul\":6547:6842   */\n  swap3\n  swap2\n  pop\n  pop\n  jump\t// out\n    /* \"#utility.yul\":6847:8242   */\ntag_7:\n    /* \"#utility.yul\":6964:7001   */\n  tag_125\n    /* \"#utility.yul\":6997:7000   */\n  dup3\n    /* \"#utility.yul\":6964:7001   */\n  tag_22\n  jump\t// in\ntag_125:\n    /* \"#utility.yul\":7066:7084   */\n  0xffffffffffffffff\n    /* \"#utility.yul\":7058:7064   */\n  dup2\n    /* \"#utility.yul\":7055:7085   */\n  gt\n    /* \"#utility.yul\":7052:7108   */\n  iszero\n  tag_126\n  jumpi\n    /* \"#utility.yul\":7088:7106   */\n  tag_127\n  tag_15\n  jump\t// in\ntag_127:\n    /* \"#utility.yul\":7052:7108   */\ntag_126:\n    /* \"#utility.yul\":7132:7170   */\n  tag_128\n    /* \"#utility.yul\":7164:7168   */\n  dup3\n    /* \"#utility.yul\":7158:7169   */\n  sload\n    /* \"#utility.yul\":7132:7170   */\n  tag_24\n  jump\t// in\ntag_128:\n    /* \"#utility.yul\":7217:7284   */\n  tag_129\n    /* \"#utility.yul\":7277:7283   */\n  dup3\n    /* \"#utility.yul\":7269:7275   */\n  dup3\n    /* \"#utility.yul\":7263:7267   */\n  dup6\n    /* \"#utility.yul\":7217:7284   */\n  tag_37\n  jump\t// in\ntag_129:\n    /* \"#utility.yul\":7311:7312   */\n  0x00\n    /* \"#utility.yul\":7335:7339   */\n  0x20\n    /* \"#utility.yul\":7322:7339   */\n  swap1\n  pop\n    /* \"#utility.yul\":7367:7369   */\n  0x1f\n    /* \"#utility.yul\":7359:7365   */\n  dup4\n    /* \"#utility.yul\":7356:7370   */\n  gt\n    /* \"#utility.yul\":7384:7385   */\n  0x01\n    /* \"#utility.yul\":7379:7997   */\n  dup2\n  eq\n  tag_131\n  jumpi\n    /* \"#utility.yul\":8041:8042   */\n  0x00\n    /* \"#utility.yul\":8058:8064   */\n  dup5\n    /* \"#utility.yul\":8055:8132   */\n  iszero\n  tag_132\n  jumpi\n    /* \"#utility.yul\":8107:8116   */\n  dup3\n    /* \"#utility.yul\":8102:8105   */\n  dup8\n    /* \"#utility.yul\":8098:8117   */\n  add\n    /* \"#utility.yul\":8092:8118   */\n  mload\n    /* \"#utility.yul\":8083:8118   */\n  swap1\n  pop\n    /* \"#utility.yul\":8055:8132   */\ntag_132:\n    /* \"#utility.yul\":8158:8225   */\n  tag_133\n    /* \"#utility.yul\":8218:8224   */\n  dup6\n    /* \"#utility.yul\":8211:8216   */\n  dup3\n    /* \"#utility.yul\":8158:8225   */\n  tag_40\n  jump\t// in\ntag_133:\n    /* \"#utility.yul\":8152:8156   */\n  dup7\n    /* \"#utility.yul\":8145:8226   */\n  sstore\n    /* \"#utility.yul\":8014:8236   */\n  pop\n    /* \"#utility.yul\":7349:8236   */\n  jump(tag_130)\n    /* \"#utility.yul\":7379:7997   */\ntag_131:\n    /* \"#utility.yul\":7431:7435   */\n  0x1f\n    /* \"#utility.yul\":7427:7436   */\n  not\n    /* \"#utility.yul\":7419:7425   */\n  dup5\n    /* \"#utility.yul\":7415:7437   */\n  and\n    /* \"#utility.yul\":7465:7502   */\n  tag_134\n    /* \"#utility.yul\":7497:7501   */\n  dup7\n    /* \"#utility.yul\":7465:7502   */\n  tag_25\n  jump\t// in\ntag_134:\n    /* \"#utility.yul\":7524:7525   */\n  0x00\n    /* \"#utility.yul\":7538:7746   */\ntag_135:\n    /* \"#utility.yul\":7552:7559   */\n  dup3\n    /* \"#utility.yul\":7549:7550   */\n  dup2\n    /* \"#utility.yul\":7546:7560   */\n  lt\n    /* \"#utility.yul\":7538:7746   */\n  iszero\n  tag_137\n  jumpi\n    /* \"#utility.yul\":7631:7640   */\n  dup5\n    /* \"#utility.yul\":7626:7629   */\n  dup10\n    /* \"#utility.yul\":7622:7641   */\n  add\n    /* \"#utility.yul\":7616:7642   */\n  mload\n    /* \"#utility.yul\":7608:7614   */\n  dup3\n    /* \"#utility.yul\":7601:7643   */\n  sstore\n    /* \"#utility.yul\":7682:7683   */\n  0x01\n    /* \"#utility.yul\":7674:7680   */\n  dup3\n    /* \"#utility.yul\":7670:7684   */\n  add\n    /* \"#utility.yul\":7660:7684   */\n  swap2\n  pop\n    /* \"#utility.yul\":7729:7731   */\n  0x20\n    /* \"#utility.yul\":7718:7727   */\n  dup6\n    /* \"#utility.yul\":7714:7732   */\n  add\n    /* \"#utility.yul\":7701:7732   */\n  swap5\n  pop\n    /* \"#utility.yul\":7575:7579   */\n  0x20\n    /* \"#utility.yul\":7572:7573   */\n  dup2\n    /* \"#utility.yul\":7568:7580   */\n  add\n    /* \"#utility.yul\":7563:7580   */\n  swap1\n  pop\n    /* \"#utility.yul\":7538:7746   */\n  jump(tag_135)\ntag_137:\n    /* \"#utility.yul\":7774:7780   */\n  dup7\n    /* \"#utility.yul\":7765:7772   */\n  dup4\n    /* \"#utility.yul\":7762:7781   */\n  lt\n    /* \"#utility.yul\":7759:7938   */\n  iszero\n  tag_138\n  jumpi\n    /* \"#utility.yul\":7832:7841   */\n  dup5\n    /* \"#utility.yul\":7827:7830   */\n  dup10\n    /* \"#utility.yul\":7823:7842   */\n  add\n    /* \"#utility.yul\":7817:7843   */\n  mload\n    /* \"#utility.yul\":7875:7923   */\n  tag_139\n    /* \"#utility.yul\":7917:7921   */\n  0x1f\n    /* \"#utility.yul\":7909:7915   */\n  dup10\n    /* \"#utility.yul\":7905:7922   */\n  and\n    /* \"#utility.yul\":7894:7903   */\n  dup3\n    /* \"#utility.yul\":7875:7923   */\n  tag_39\n  jump\t// in\ntag_139:\n    /* \"#utility.yul\":7867:7873   */\n  dup4\n    /* \"#utility.yul\":7860:7924   */\n  sstore\n    /* \"#utility.yul\":7782:7938   */\n  pop\n    /* \"#utility.yul\":7759:7938   */\ntag_138:\n    /* \"#utility.yul\":7984:7985   */\n  0x01\n    /* \"#utility.yul\":7980:7981   */\n  0x02\n    /* \"#utility.yul\":7972:7978   */\n  dup9\n    /* \"#utility.yul\":7968:7982   */\n  mul\n    /* \"#utility.yul\":7964:7986   */\n  add\n    /* \"#utility.yul\":7958:7962   */\n  dup9\n    /* \"#utility.yul\":7951:7987   */\n  sstore\n    /* \"#utility.yul\":7386:7997   */\n  pop\n  pop\n  pop\n    /* \"#utility.yul\":7349:8236   */\ntag_130:\n  pop\n    /* \"#utility.yul\":6939:8242   */\n  pop\n  pop\n  pop\n    /* \"#utility.yul\":6847:8242   */\n  pop\n  pop\n  jump\t// out\n    /* \"Two Chain/greeterL2.sol\":1198:2870  contract Greeter {... */\ntag_8:\n  dataSize(sub_0)\n  dup1\n  dataOffset(sub_0)\n  0x00\n  codecopy\n  0x00\n  return\nstop\n\nsub_0: assembly {\n        /* \"Two Chain/greeterL2.sol\":1198:2870  contract Greeter {... */\n      mstore(0x40, 0x80)\n      callvalue\n      dup1\n      iszero\n      tag_1\n      jumpi\n      0x00\n      dup1\n      revert\n    tag_1:\n      pop\n      jumpi(tag_2, lt(calldatasize, 0x04))\n      shr(0xe0, calldataload(0x00))\n      dup1\n      0x8d86c2ad\n      eq\n      tag_3\n      jumpi\n      dup1\n      0xa4136862\n      eq\n      tag_4\n      jumpi\n      dup1\n      0xcfae3217\n      eq\n      tag_5\n      jumpi\n    tag_2:\n      0x00\n      dup1\n      revert\n        /* \"Two Chain/greeterL2.sol\":1649:1823  function setGreeting(string memory _greeting, address _user) public {... */\n    tag_3:\n      tag_6\n      0x04\n      dup1\n      calldatasize\n      sub\n      dup2\n      add\n      swap1\n      tag_7\n      swap2\n      swap1\n      tag_8\n      jump\t// in\n    tag_7:\n      tag_9\n      jump\t// in\n    tag_6:\n      stop\n        /* \"Two Chain/greeterL2.sol\":1828:1992  function setGreeting(string memory _greeting) public {... */\n    tag_4:\n      tag_10\n      0x04\n      dup1\n      calldatasize\n      sub\n      dup2\n      add\n      swap1\n      tag_11\n      swap2\n      swap1\n      tag_12\n      jump\t// in\n    tag_11:\n      tag_13\n      jump\t// in\n    tag_10:\n      stop\n        /* \"Two Chain/greeterL2.sol\":1566:1645  function greet() public view returns (string memory) {... */\n    tag_5:\n      tag_14\n      tag_15\n      jump\t// in\n    tag_14:\n      mload(0x40)\n      tag_16\n      swap2\n      swap1\n      tag_17\n      jump\t// in\n    tag_16:\n      mload(0x40)\n      dup1\n      swap2\n      sub\n      swap1\n      return\n        /* \"Two Chain/greeterL2.sol\":1649:1823  function setGreeting(string memory _greeting, address _user) public {... */\n    tag_9:\n        /* \"Two Chain/greeterL2.sol\":1734:1743  _greeting */\n      dup2\n        /* \"Two Chain/greeterL2.sol\":1723:1731  greeting */\n      0x00\n        /* \"Two Chain/greeterL2.sol\":1723:1743  greeting = _greeting */\n      swap1\n      dup2\n      tag_19\n      swap2\n      swap1\n      tag_20\n      jump\t// in\n    tag_19:\n      pop\n        /* \"Two Chain/greeterL2.sol\":1754:1818  SetGreeting(msg.sender, tx.origin, getXorig(), _user, _greeting) */\n      0xfd1fe8fb6b9b0c76d4539b55dea0c817720153be1279cefedacf48b099144988\n        /* \"Two Chain/greeterL2.sol\":1766:1776  msg.sender */\n      caller\n        /* \"Two Chain/greeterL2.sol\":1778:1787  tx.origin */\n      origin\n        /* \"Two Chain/greeterL2.sol\":1789:1799  getXorig() */\n      tag_21\n        /* \"Two Chain/greeterL2.sol\":1789:1797  getXorig */\n      tag_22\n        /* \"Two Chain/greeterL2.sol\":1789:1799  getXorig() */\n      jump\t// in\n    tag_21:\n        /* \"Two Chain/greeterL2.sol\":1801:1806  _user */\n      dup5\n        /* \"Two Chain/greeterL2.sol\":1808:1817  _greeting */\n      dup7\n        /* \"Two Chain/greeterL2.sol\":1754:1818  SetGreeting(msg.sender, tx.origin, getXorig(), _user, _greeting) */\n      mload(0x40)\n      tag_23\n      swap6\n      swap5\n      swap4\n      swap3\n      swap2\n      swap1\n      tag_24\n      jump\t// in\n    tag_23:\n      mload(0x40)\n      dup1\n      swap2\n      sub\n      swap1\n      log1\n        /* \"Two Chain/greeterL2.sol\":1649:1823  function setGreeting(string memory _greeting, address _user) public {... */\n      pop\n      pop\n      jump\t// out\n        /* \"Two Chain/greeterL2.sol\":1828:1992  function setGreeting(string memory _greeting) public {... */\n    tag_13:\n        /* \"Two Chain/greeterL2.sol\":1898:1907  _greeting */\n      dup1\n        /* \"Two Chain/greeterL2.sol\":1887:1895  greeting */\n      0x00\n        /* \"Two Chain/greeterL2.sol\":1887:1907  greeting = _greeting */\n      swap1\n      dup2\n      tag_26\n      swap2\n      swap1\n      tag_20\n      jump\t// in\n    tag_26:\n      pop\n        /* \"Two Chain/greeterL2.sol\":1918:1987  SetGreeting(msg.sender, tx.origin, getXorig(), address(0), _greeting) */\n      0xfd1fe8fb6b9b0c76d4539b55dea0c817720153be1279cefedacf48b099144988\n        /* \"Two Chain/greeterL2.sol\":1930:1940  msg.sender */\n      caller\n        /* \"Two Chain/greeterL2.sol\":1942:1951  tx.origin */\n      origin\n        /* \"Two Chain/greeterL2.sol\":1953:1963  getXorig() */\n      tag_27\n        /* \"Two Chain/greeterL2.sol\":1953:1961  getXorig */\n      tag_22\n        /* \"Two Chain/greeterL2.sol\":1953:1963  getXorig() */\n      jump\t// in\n    tag_27:\n        /* \"Two Chain/greeterL2.sol\":1973:1974  0 */\n      0x00\n        /* \"Two Chain/greeterL2.sol\":1977:1986  _greeting */\n      dup6\n        /* \"Two Chain/greeterL2.sol\":1918:1987  SetGreeting(msg.sender, tx.origin, getXorig(), address(0), _greeting) */\n      mload(0x40)\n      tag_28\n      swap6\n      swap5\n      swap4\n      swap3\n      swap2\n      swap1\n      tag_24\n      jump\t// in\n    tag_28:\n      mload(0x40)\n      dup1\n      swap2\n      sub\n      swap1\n      log1\n        /* \"Two Chain/greeterL2.sol\":1828:1992  function setGreeting(string memory _greeting) public {... */\n      pop\n      jump\t// out\n        /* \"Two Chain/greeterL2.sol\":1566:1645  function greet() public view returns (string memory) {... */\n    tag_15:\n        /* \"Two Chain/greeterL2.sol\":1604:1617  string memory */\n      0x60\n        /* \"Two Chain/greeterL2.sol\":1632:1640  greeting */\n      0x00\n        /* \"Two Chain/greeterL2.sol\":1625:1640  return greeting */\n      dup1\n      sload\n      tag_30\n      swap1\n      tag_31\n      jump\t// in\n    tag_30:\n      dup1\n      0x1f\n      add\n      0x20\n      dup1\n      swap2\n      div\n      mul\n      0x20\n      add\n      mload(0x40)\n      swap1\n      dup2\n      add\n      0x40\n      mstore\n      dup1\n      swap3\n      swap2\n      swap1\n      dup2\n      dup2\n      mstore\n      0x20\n      add\n      dup3\n      dup1\n      sload\n      tag_32\n      swap1\n      tag_31\n      jump\t// in\n    tag_32:\n      dup1\n      iszero\n      tag_33\n      jumpi\n      dup1\n      0x1f\n      lt\n      tag_34\n      jumpi\n      0x0100\n      dup1\n      dup4\n      sload\n      div\n      mul\n      dup4\n      mstore\n      swap2\n      0x20\n      add\n      swap2\n      jump(tag_33)\n    tag_34:\n      dup3\n      add\n      swap2\n      swap1\n      0x00\n      mstore\n      keccak256(0x00, 0x20)\n      swap1\n    tag_35:\n      dup2\n      sload\n      dup2\n      mstore\n      swap1\n      0x01\n      add\n      swap1\n      0x20\n      add\n      dup1\n      dup4\n      gt\n      tag_35\n      jumpi\n      dup3\n      swap1\n      sub\n      0x1f\n      and\n      dup3\n      add\n      swap2\n    tag_33:\n      pop\n      pop\n      pop\n      pop\n      pop\n      swap1\n      pop\n        /* \"Two Chain/greeterL2.sol\":1566:1645  function greet() public view returns (string memory) {... */\n      swap1\n      jump\t// out\n        /* \"Two Chain/greeterL2.sol\":2037:2851  function getXorig() private view returns (address) {... */\n    tag_22:\n        /* \"Two Chain/greeterL2.sol\":2079:2086  address */\n      0x00\n        /* \"Two Chain/greeterL2.sol\":2217:2232  address cdmAddr */\n      dup1\n        /* \"Two Chain/greeterL2.sol\":2243:2244  0 */\n      0x00\n        /* \"Two Chain/greeterL2.sol\":2217:2245  address cdmAddr = address(0) */\n      swap1\n      pop\n        /* \"Two Chain/greeterL2.sol\":2292:2293  1 */\n      0x01\n        /* \"Two Chain/greeterL2.sol\":2275:2288  block.chainid */\n      chainid\n        /* \"Two Chain/greeterL2.sol\":2275:2293  block.chainid == 1 */\n      sub\n        /* \"Two Chain/greeterL2.sol\":2271:2353  if (block.chainid == 1)... */\n      tag_37\n      jumpi\n        /* \"Two Chain/greeterL2.sol\":2311:2353  0x25ace71c97B33Cc4729CF772ae268934F7ab5fA1 */\n      0x25ace71c97b33cc4729cf772ae268934f7ab5fa1\n        /* \"Two Chain/greeterL2.sol\":2301:2353  cdmAddr = 0x25ace71c97B33Cc4729CF772ae268934F7ab5fA1 */\n      swap1\n      pop\n        /* \"Two Chain/greeterL2.sol\":2271:2353  if (block.chainid == 1)... */\n    tag_37:\n        /* \"Two Chain/greeterL2.sol\":2395:2396  5 */\n      0x05\n        /* \"Two Chain/greeterL2.sol\":2378:2391  block.chainid */\n      chainid\n        /* \"Two Chain/greeterL2.sol\":2378:2396  block.chainid == 5 */\n      sub\n        /* \"Two Chain/greeterL2.sol\":2374:2456  if (block.chainid == 5)... */\n      tag_38\n      jumpi\n        /* \"Two Chain/greeterL2.sol\":2414:2456  0x5086d1eEF304eb5284A0f6720f79403b4e9bE294 */\n      0x5086d1eef304eb5284a0f6720f79403b4e9be294\n        /* \"Two Chain/greeterL2.sol\":2404:2456  cdmAddr = 0x5086d1eEF304eb5284A0f6720f79403b4e9bE294 */\n      swap1\n      pop\n        /* \"Two Chain/greeterL2.sol\":2374:2456  if (block.chainid == 5)... */\n    tag_38:\n        /* \"Two Chain/greeterL2.sol\":2526:2528  10 */\n      0x0a\n        /* \"Two Chain/greeterL2.sol\":2509:2522  block.chainid */\n      chainid\n        /* \"Two Chain/greeterL2.sol\":2509:2528  block.chainid == 10 */\n      eq\n        /* \"Two Chain/greeterL2.sol\":2509:2552  block.chainid == 10 || block.chainid == 420 */\n      dup1\n      tag_39\n      jumpi\n      pop\n        /* \"Two Chain/greeterL2.sol\":2549:2552  420 */\n      0x01a4\n        /* \"Two Chain/greeterL2.sol\":2532:2545  block.chainid */\n      chainid\n        /* \"Two Chain/greeterL2.sol\":2532:2552  block.chainid == 420 */\n      eq\n        /* \"Two Chain/greeterL2.sol\":2509:2552  block.chainid == 10 || block.chainid == 420 */\n    tag_39:\n        /* \"Two Chain/greeterL2.sol\":2505:2612  if (block.chainid == 10 || block.chainid == 420)... */\n      iszero\n      tag_40\n      jumpi\n        /* \"Two Chain/greeterL2.sol\":2570:2612  0x4200000000000000000000000000000000000007 */\n      0x4200000000000000000000000000000000000007\n        /* \"Two Chain/greeterL2.sol\":2560:2612  cdmAddr = 0x4200000000000000000000000000000000000007 */\n      swap1\n      pop\n        /* \"Two Chain/greeterL2.sol\":2505:2612  if (block.chainid == 10 || block.chainid == 420)... */\n    tag_40:\n        /* \"Two Chain/greeterL2.sol\":2681:2688  cdmAddr */\n      dup1\n        /* \"Two Chain/greeterL2.sol\":2667:2688  msg.sender != cdmAddr */\n      0xffffffffffffffffffffffffffffffffffffffff\n      and\n        /* \"Two Chain/greeterL2.sol\":2667:2677  msg.sender */\n      caller\n        /* \"Two Chain/greeterL2.sol\":2667:2688  msg.sender != cdmAddr */\n      0xffffffffffffffffffffffffffffffffffffffff\n      and\n      eq\n        /* \"Two Chain/greeterL2.sol\":2663:2713  if (msg.sender != cdmAddr)... */\n      tag_41\n      jumpi\n        /* \"Two Chain/greeterL2.sol\":2711:2712  0 */\n      0x00\n        /* \"Two Chain/greeterL2.sol\":2696:2713  return address(0) */\n      swap2\n      pop\n      pop\n      jump(tag_36)\n        /* \"Two Chain/greeterL2.sol\":2663:2713  if (msg.sender != cdmAddr)... */\n    tag_41:\n        /* \"Two Chain/greeterL2.sol\":2815:2822  cdmAddr */\n      dup1\n        /* \"Two Chain/greeterL2.sol\":2793:2844  ICrossDomainMessenger(cdmAddr).xDomainMessageSender */\n      0xffffffffffffffffffffffffffffffffffffffff\n      and\n      0x6e296e45\n        /* \"Two Chain/greeterL2.sol\":2793:2846  ICrossDomainMessenger(cdmAddr).xDomainMessageSender() */\n      mload(0x40)\n      dup2\n      0xffffffff\n      and\n      0xe0\n      shl\n      dup2\n      mstore\n      0x04\n      add\n      0x20\n      mload(0x40)\n      dup1\n      dup4\n      sub\n      dup2\n      dup7\n      gas\n      staticcall\n      iszero\n      dup1\n      iszero\n      tag_43\n      jumpi\n      returndatasize\n      0x00\n      dup1\n      returndatacopy\n      revert(0x00, returndatasize)\n    tag_43:\n      pop\n      pop\n      pop\n      pop\n      mload(0x40)\n      returndatasize\n      not(0x1f)\n      0x1f\n      dup3\n      add\n      and\n      dup3\n      add\n      dup1\n      0x40\n      mstore\n      pop\n      dup2\n      add\n      swap1\n      tag_44\n      swap2\n      swap1\n      tag_45\n      jump\t// in\n    tag_44:\n        /* \"Two Chain/greeterL2.sol\":2786:2846  return ICrossDomainMessenger(cdmAddr).xDomainMessageSender() */\n      swap2\n      pop\n      pop\n        /* \"Two Chain/greeterL2.sol\":2037:2851  function getXorig() private view returns (address) {... */\n    tag_36:\n      swap1\n      jump\t// out\n        /* \"#utility.yul\":7:82   */\n    tag_46:\n        /* \"#utility.yul\":40:46   */\n      0x00\n        /* \"#utility.yul\":73:75   */\n      0x40\n        /* \"#utility.yul\":67:76   */\n      mload\n        /* \"#utility.yul\":57:76   */\n      swap1\n      pop\n        /* \"#utility.yul\":7:82   */\n      swap1\n      jump\t// out\n        /* \"#utility.yul\":88:205   */\n    tag_47:\n        /* \"#utility.yul\":197:198   */\n      0x00\n        /* \"#utility.yul\":194:195   */\n      dup1\n        /* \"#utility.yul\":187:199   */\n      revert\n        /* \"#utility.yul\":211:328   */\n    tag_48:\n        /* \"#utility.yul\":320:321   */\n      0x00\n        /* \"#utility.yul\":317:318   */\n      dup1\n        /* \"#utility.yul\":310:322   */\n      revert\n        /* \"#utility.yul\":334:451   */\n    tag_49:\n        /* \"#utility.yul\":443:444   */\n      0x00\n        /* \"#utility.yul\":440:441   */\n      dup1\n        /* \"#utility.yul\":433:445   */\n      revert\n        /* \"#utility.yul\":457:574   */\n    tag_50:\n        /* \"#utility.yul\":566:567   */\n      0x00\n        /* \"#utility.yul\":563:564   */\n      dup1\n        /* \"#utility.yul\":556:568   */\n      revert\n        /* \"#utility.yul\":580:682   */\n    tag_51:\n        /* \"#utility.yul\":621:627   */\n      0x00\n        /* \"#utility.yul\":672:674   */\n      0x1f\n        /* \"#utility.yul\":668:675   */\n      not\n        /* \"#utility.yul\":663:665   */\n      0x1f\n        /* \"#utility.yul\":656:661   */\n      dup4\n        /* \"#utility.yul\":652:666   */\n      add\n        /* \"#utility.yul\":648:676   */\n      and\n        /* \"#utility.yul\":638:676   */\n      swap1\n      pop\n        /* \"#utility.yul\":580:682   */\n      swap2\n      swap1\n      pop\n      jump\t// out\n        /* \"#utility.yul\":688:868   */\n    tag_52:\n        /* \"#utility.yul\":736:813   */\n      0x4e487b7100000000000000000000000000000000000000000000000000000000\n        /* \"#utility.yul\":733:734   */\n      0x00\n        /* \"#utility.yul\":726:814   */\n      mstore\n        /* \"#utility.yul\":833:837   */\n      0x41\n        /* \"#utility.yul\":830:831   */\n      0x04\n        /* \"#utility.yul\":823:838   */\n      mstore\n        /* \"#utility.yul\":857:861   */\n      0x24\n        /* \"#utility.yul\":854:855   */\n      0x00\n        /* \"#utility.yul\":847:862   */\n      revert\n        /* \"#utility.yul\":874:1155   */\n    tag_53:\n        /* \"#utility.yul\":957:984   */\n      tag_95\n        /* \"#utility.yul\":979:983   */\n      dup3\n        /* \"#utility.yul\":957:984   */\n      tag_51\n      jump\t// in\n    tag_95:\n        /* \"#utility.yul\":949:955   */\n      dup2\n        /* \"#utility.yul\":945:985   */\n      add\n        /* \"#utility.yul\":1087:1093   */\n      dup2\n        /* \"#utility.yul\":1075:1085   */\n      dup2\n        /* \"#utility.yul\":1072:1094   */\n      lt\n        /* \"#utility.yul\":1051:1069   */\n      0xffffffffffffffff\n        /* \"#utility.yul\":1039:1049   */\n      dup3\n        /* \"#utility.yul\":1036:1070   */\n      gt\n        /* \"#utility.yul\":1033:1095   */\n      or\n        /* \"#utility.yul\":1030:1118   */\n      iszero\n      tag_96\n      jumpi\n        /* \"#utility.yul\":1098:1116   */\n      tag_97\n      tag_52\n      jump\t// in\n    tag_97:\n        /* \"#utility.yul\":1030:1118   */\n    tag_96:\n        /* \"#utility.yul\":1138:1148   */\n      dup1\n        /* \"#utility.yul\":1134:1136   */\n      0x40\n        /* \"#utility.yul\":1127:1149   */\n      mstore\n        /* \"#utility.yul\":917:1155   */\n      pop\n        /* \"#utility.yul\":874:1155   */\n      pop\n      pop\n      jump\t// out\n        /* \"#utility.yul\":1161:1290   */\n    tag_54:\n        /* \"#utility.yul\":1195:1201   */\n      0x00\n        /* \"#utility.yul\":1222:1242   */\n      tag_99\n      tag_46\n      jump\t// in\n    tag_99:\n        /* \"#utility.yul\":1212:1242   */\n      swap1\n      pop\n        /* \"#utility.yul\":1251:1284   */\n      tag_100\n        /* \"#utility.yul\":1279:1283   */\n      dup3\n        /* \"#utility.yul\":1271:1277   */\n      dup3\n        /* \"#utility.yul\":1251:1284   */\n      tag_53\n      jump\t// in\n    tag_100:\n        /* \"#utility.yul\":1161:1290   */\n      swap2\n      swap1\n      pop\n      jump\t// out\n        /* \"#utility.yul\":1296:1604   */\n    tag_55:\n        /* \"#utility.yul\":1358:1362   */\n      0x00\n        /* \"#utility.yul\":1448:1466   */\n      0xffffffffffffffff\n        /* \"#utility.yul\":1440:1446   */\n      dup3\n        /* \"#utility.yul\":1437:1467   */\n      gt\n        /* \"#utility.yul\":1434:1490   */\n      iszero\n      tag_102\n      jumpi\n        /* \"#utility.yul\":1470:1488   */\n      tag_103\n      tag_52\n      jump\t// in\n    tag_103:\n        /* \"#utility.yul\":1434:1490   */\n    tag_102:\n        /* \"#utility.yul\":1508:1537   */\n      tag_104\n        /* \"#utility.yul\":1530:1536   */\n      dup3\n        /* \"#utility.yul\":1508:1537   */\n      tag_51\n      jump\t// in\n    tag_104:\n        /* \"#utility.yul\":1500:1537   */\n      swap1\n      pop\n        /* \"#utility.yul\":1592:1596   */\n      0x20\n        /* \"#utility.yul\":1586:1590   */\n      dup2\n        /* \"#utility.yul\":1582:1597   */\n      add\n        /* \"#utility.yul\":1574:1597   */\n      swap1\n      pop\n        /* \"#utility.yul\":1296:1604   */\n      swap2\n      swap1\n      pop\n      jump\t// out\n        /* \"#utility.yul\":1610:1756   */\n    tag_56:\n        /* \"#utility.yul\":1707:1713   */\n      dup3\n        /* \"#utility.yul\":1702:1705   */\n      dup2\n        /* \"#utility.yul\":1697:1700   */\n      dup4\n        /* \"#utility.yul\":1684:1714   */\n      calldatacopy\n        /* \"#utility.yul\":1748:1749   */\n      0x00\n        /* \"#utility.yul\":1739:1745   */\n      dup4\n        /* \"#utility.yul\":1734:1737   */\n      dup4\n        /* \"#utility.yul\":1730:1746   */\n      add\n        /* \"#utility.yul\":1723:1750   */\n      mstore\n        /* \"#utility.yul\":1610:1756   */\n      pop\n      pop\n      pop\n      jump\t// out\n        /* \"#utility.yul\":1762:2187   */\n    tag_57:\n        /* \"#utility.yul\":1840:1845   */\n      0x00\n        /* \"#utility.yul\":1865:1931   */\n      tag_107\n        /* \"#utility.yul\":1881:1930   */\n      tag_108\n        /* \"#utility.yul\":1923:1929   */\n      dup5\n        /* \"#utility.yul\":1881:1930   */\n      tag_55\n      jump\t// in\n    tag_108:\n        /* \"#utility.yul\":1865:1931   */\n      tag_54\n      jump\t// in\n    tag_107:\n        /* \"#utility.yul\":1856:1931   */\n      swap1\n      pop\n        /* \"#utility.yul\":1954:1960   */\n      dup3\n        /* \"#utility.yul\":1947:1952   */\n      dup2\n        /* \"#utility.yul\":1940:1961   */\n      mstore\n        /* \"#utility.yul\":1992:1996   */\n      0x20\n        /* \"#utility.yul\":1985:1990   */\n      dup2\n        /* \"#utility.yul\":1981:1997   */\n      add\n        /* \"#utility.yul\":2030:2033   */\n      dup5\n        /* \"#utility.yul\":2021:2027   */\n      dup5\n        /* \"#utility.yul\":2016:2019   */\n      dup5\n        /* \"#utility.yul\":2012:2028   */\n      add\n        /* \"#utility.yul\":2009:2034   */\n      gt\n        /* \"#utility.yul\":2006:2118   */\n      iszero\n      tag_109\n      jumpi\n        /* \"#utility.yul\":2037:2116   */\n      tag_110\n      tag_50\n      jump\t// in\n    tag_110:\n        /* \"#utility.yul\":2006:2118   */\n    tag_109:\n        /* \"#utility.yul\":2127:2181   */\n      tag_111\n        /* \"#utility.yul\":2174:2180   */\n      dup5\n        /* \"#utility.yul\":2169:2172   */\n      dup3\n        /* \"#utility.yul\":2164:2167   */\n      dup6\n        /* \"#utility.yul\":2127:2181   */\n      tag_56\n      jump\t// in\n    tag_111:\n        /* \"#utility.yul\":1846:2187   */\n      pop\n        /* \"#utility.yul\":1762:2187   */\n      swap4\n      swap3\n      pop\n      pop\n      pop\n      jump\t// out\n        /* \"#utility.yul\":2207:2547   */\n    tag_58:\n        /* \"#utility.yul\":2263:2268   */\n      0x00\n        /* \"#utility.yul\":2312:2315   */\n      dup3\n        /* \"#utility.yul\":2305:2309   */\n      0x1f\n        /* \"#utility.yul\":2297:2303   */\n      dup4\n        /* \"#utility.yul\":2293:2310   */\n      add\n        /* \"#utility.yul\":2289:2316   */\n      slt\n        /* \"#utility.yul\":2279:2401   */\n      tag_113\n      jumpi\n        /* \"#utility.yul\":2320:2399   */\n      tag_114\n      tag_49\n      jump\t// in\n    tag_114:\n        /* \"#utility.yul\":2279:2401   */\n    tag_113:\n        /* \"#utility.yul\":2437:2443   */\n      dup2\n        /* \"#utility.yul\":2424:2444   */\n      calldataload\n        /* \"#utility.yul\":2462:2541   */\n      tag_115\n        /* \"#utility.yul\":2537:2540   */\n      dup5\n        /* \"#utility.yul\":2529:2535   */\n      dup3\n        /* \"#utility.yul\":2522:2526   */\n      0x20\n        /* \"#utility.yul\":2514:2520   */\n      dup7\n        /* \"#utility.yul\":2510:2527   */\n      add\n        /* \"#utility.yul\":2462:2541   */\n      tag_57\n      jump\t// in\n    tag_115:\n        /* \"#utility.yul\":2453:2541   */\n      swap2\n      pop\n        /* \"#utility.yul\":2269:2547   */\n      pop\n        /* \"#utility.yul\":2207:2547   */\n      swap3\n      swap2\n      pop\n      pop\n      jump\t// out\n        /* \"#utility.yul\":2553:2679   */\n    tag_59:\n        /* \"#utility.yul\":2590:2597   */\n      0x00\n        /* \"#utility.yul\":2630:2672   */\n      0xffffffffffffffffffffffffffffffffffffffff\n        /* \"#utility.yul\":2623:2628   */\n      dup3\n        /* \"#utility.yul\":2619:2673   */\n      and\n        /* \"#utility.yul\":2608:2673   */\n      swap1\n      pop\n        /* \"#utility.yul\":2553:2679   */\n      swap2\n      swap1\n      pop\n      jump\t// out\n        /* \"#utility.yul\":2685:2781   */\n    tag_60:\n        /* \"#utility.yul\":2722:2729   */\n      0x00\n        /* \"#utility.yul\":2751:2775   */\n      tag_118\n        /* \"#utility.yul\":2769:2774   */\n      dup3\n        /* \"#utility.yul\":2751:2775   */\n      tag_59\n      jump\t// in\n    tag_118:\n        /* \"#utility.yul\":2740:2775   */\n      swap1\n      pop\n        /* \"#utility.yul\":2685:2781   */\n      swap2\n      swap1\n      pop\n      jump\t// out\n        /* \"#utility.yul\":2787:2909   */\n    tag_61:\n        /* \"#utility.yul\":2860:2884   */\n      tag_120\n        /* \"#utility.yul\":2878:2883   */\n      dup2\n        /* \"#utility.yul\":2860:2884   */\n      tag_60\n      jump\t// in\n    tag_120:\n        /* \"#utility.yul\":2853:2858   */\n      dup2\n        /* \"#utility.yul\":2850:2885   */\n      eq\n        /* \"#utility.yul\":2840:2903   */\n      tag_121\n      jumpi\n        /* \"#utility.yul\":2899:2900   */\n      0x00\n        /* \"#utility.yul\":2896:2897   */\n      dup1\n        /* \"#utility.yul\":2889:2901   */\n      revert\n        /* \"#utility.yul\":2840:2903   */\n    tag_121:\n        /* \"#utility.yul\":2787:2909   */\n      pop\n      jump\t// out\n        /* \"#utility.yul\":2915:3054   */\n    tag_62:\n        /* \"#utility.yul\":2961:2966   */\n      0x00\n        /* \"#utility.yul\":2999:3005   */\n      dup2\n        /* \"#utility.yul\":2986:3006   */\n      calldataload\n        /* \"#utility.yul\":2977:3006   */\n      swap1\n      pop\n        /* \"#utility.yul\":3015:3048   */\n      tag_123\n        /* \"#utility.yul\":3042:3047   */\n      dup2\n        /* \"#utility.yul\":3015:3048   */\n      tag_61\n      jump\t// in\n    tag_123:\n        /* \"#utility.yul\":2915:3054   */\n      swap3\n      swap2\n      pop\n      pop\n      jump\t// out\n        /* \"#utility.yul\":3060:3714   */\n    tag_8:\n        /* \"#utility.yul\":3138:3144   */\n      0x00\n        /* \"#utility.yul\":3146:3152   */\n      dup1\n        /* \"#utility.yul\":3195:3197   */\n      0x40\n        /* \"#utility.yul\":3183:3192   */\n      dup4\n        /* \"#utility.yul\":3174:3181   */\n      dup6\n        /* \"#utility.yul\":3170:3193   */\n      sub\n        /* \"#utility.yul\":3166:3198   */\n      slt\n        /* \"#utility.yul\":3163:3282   */\n      iszero\n      tag_125\n      jumpi\n        /* \"#utility.yul\":3201:3280   */\n      tag_126\n      tag_47\n      jump\t// in\n    tag_126:\n        /* \"#utility.yul\":3163:3282   */\n    tag_125:\n        /* \"#utility.yul\":3349:3350   */\n      0x00\n        /* \"#utility.yul\":3338:3347   */\n      dup4\n        /* \"#utility.yul\":3334:3351   */\n      add\n        /* \"#utility.yul\":3321:3352   */\n      calldataload\n        /* \"#utility.yul\":3379:3397   */\n      0xffffffffffffffff\n        /* \"#utility.yul\":3371:3377   */\n      dup2\n        /* \"#utility.yul\":3368:3398   */\n      gt\n        /* \"#utility.yul\":3365:3482   */\n      iszero\n      tag_127\n      jumpi\n        /* \"#utility.yul\":3401:3480   */\n      tag_128\n      tag_48\n      jump\t// in\n    tag_128:\n        /* \"#utility.yul\":3365:3482   */\n    tag_127:\n        /* \"#utility.yul\":3506:3569   */\n      tag_129\n        /* \"#utility.yul\":3561:3568   */\n      dup6\n        /* \"#utility.yul\":3552:3558   */\n      dup3\n        /* \"#utility.yul\":3541:3550   */\n      dup7\n        /* \"#utility.yul\":3537:3559   */\n      add\n        /* \"#utility.yul\":3506:3569   */\n      tag_58\n      jump\t// in\n    tag_129:\n        /* \"#utility.yul\":3496:3569   */\n      swap3\n      pop\n        /* \"#utility.yul\":3292:3579   */\n      pop\n        /* \"#utility.yul\":3618:3620   */\n      0x20\n        /* \"#utility.yul\":3644:3697   */\n      tag_130\n        /* \"#utility.yul\":3689:3696   */\n      dup6\n        /* \"#utility.yul\":3680:3686   */\n      dup3\n        /* \"#utility.yul\":3669:3678   */\n      dup7\n        /* \"#utility.yul\":3665:3687   */\n      add\n        /* \"#utility.yul\":3644:3697   */\n      tag_62\n      jump\t// in\n    tag_130:\n        /* \"#utility.yul\":3634:3697   */\n      swap2\n      pop\n        /* \"#utility.yul\":3589:3707   */\n      pop\n        /* \"#utility.yul\":3060:3714   */\n      swap3\n      pop\n      swap3\n      swap1\n      pop\n      jump\t// out\n        /* \"#utility.yul\":3720:4229   */\n    tag_12:\n        /* \"#utility.yul\":3789:3795   */\n      0x00\n        /* \"#utility.yul\":3838:3840   */\n      0x20\n        /* \"#utility.yul\":3826:3835   */\n      dup3\n        /* \"#utility.yul\":3817:3824   */\n      dup5\n        /* \"#utility.yul\":3813:3836   */\n      sub\n        /* \"#utility.yul\":3809:3841   */\n      slt\n        /* \"#utility.yul\":3806:3925   */\n      iszero\n      tag_132\n      jumpi\n        /* \"#utility.yul\":3844:3923   */\n      tag_133\n      tag_47\n      jump\t// in\n    tag_133:\n        /* \"#utility.yul\":3806:3925   */\n    tag_132:\n        /* \"#utility.yul\":3992:3993   */\n      0x00\n        /* \"#utility.yul\":3981:3990   */\n      dup3\n        /* \"#utility.yul\":3977:3994   */\n      add\n        /* \"#utility.yul\":3964:3995   */\n      calldataload\n        /* \"#utility.yul\":4022:4040   */\n      0xffffffffffffffff\n        /* \"#utility.yul\":4014:4020   */\n      dup2\n        /* \"#utility.yul\":4011:4041   */\n      gt\n        /* \"#utility.yul\":4008:4125   */\n      iszero\n      tag_134\n      jumpi\n        /* \"#utility.yul\":4044:4123   */\n      tag_135\n      tag_48\n      jump\t// in\n    tag_135:\n        /* \"#utility.yul\":4008:4125   */\n    tag_134:\n        /* \"#utility.yul\":4149:4212   */\n      tag_136\n        /* \"#utility.yul\":4204:4211   */\n      dup5\n        /* \"#utility.yul\":4195:4201   */\n      dup3\n        /* \"#utility.yul\":4184:4193   */\n      dup6\n        /* \"#utility.yul\":4180:4202   */\n      add\n        /* \"#utility.yul\":4149:4212   */\n      tag_58\n      jump\t// in\n    tag_136:\n        /* \"#utility.yul\":4139:4212   */\n      swap2\n      pop\n        /* \"#utility.yul\":3935:4222   */\n      pop\n        /* \"#utility.yul\":3720:4229   */\n      swap3\n      swap2\n      pop\n      pop\n      jump\t// out\n        /* \"#utility.yul\":4235:4334   */\n    tag_63:\n        /* \"#utility.yul\":4287:4293   */\n      0x00\n        /* \"#utility.yul\":4321:4326   */\n      dup2\n        /* \"#utility.yul\":4315:4327   */\n      mload\n        /* \"#utility.yul\":4305:4327   */\n      swap1\n      pop\n        /* \"#utility.yul\":4235:4334   */\n      swap2\n      swap1\n      pop\n      jump\t// out\n        /* \"#utility.yul\":4340:4509   */\n    tag_64:\n        /* \"#utility.yul\":4424:4435   */\n      0x00\n        /* \"#utility.yul\":4458:4464   */\n      dup3\n        /* \"#utility.yul\":4453:4456   */\n      dup3\n        /* \"#utility.yul\":4446:4465   */\n      mstore\n        /* \"#utility.yul\":4498:4502   */\n      0x20\n        /* \"#utility.yul\":4493:4496   */\n      dup3\n        /* \"#utility.yul\":4489:4503   */\n      add\n        /* \"#utility.yul\":4474:4503   */\n      swap1\n      pop\n        /* \"#utility.yul\":4340:4509   */\n      swap3\n      swap2\n      pop\n      pop\n      jump\t// out\n        /* \"#utility.yul\":4515:4761   */\n    tag_65:\n        /* \"#utility.yul\":4596:4597   */\n      0x00\n        /* \"#utility.yul\":4606:4719   */\n    tag_140:\n        /* \"#utility.yul\":4620:4626   */\n      dup4\n        /* \"#utility.yul\":4617:4618   */\n      dup2\n        /* \"#utility.yul\":4614:4627   */\n      lt\n        /* \"#utility.yul\":4606:4719   */\n      iszero\n      tag_142\n      jumpi\n        /* \"#utility.yul\":4705:4706   */\n      dup1\n        /* \"#utility.yul\":4700:4703   */\n      dup3\n        /* \"#utility.yul\":4696:4707   */\n      add\n        /* \"#utility.yul\":4690:4708   */\n      mload\n        /* \"#utility.yul\":4686:4687   */\n      dup2\n        /* \"#utility.yul\":4681:4684   */\n      dup5\n        /* \"#utility.yul\":4677:4688   */\n      add\n        /* \"#utility.yul\":4670:4709   */\n      mstore\n        /* \"#utility.yul\":4642:4644   */\n      0x20\n        /* \"#utility.yul\":4639:4640   */\n      dup2\n        /* \"#utility.yul\":4635:4645   */\n      add\n        /* \"#utility.yul\":4630:4645   */\n      swap1\n      pop\n        /* \"#utility.yul\":4606:4719   */\n      jump(tag_140)\n    tag_142:\n        /* \"#utility.yul\":4753:4754   */\n      0x00\n        /* \"#utility.yul\":4744:4750   */\n      dup5\n        /* \"#utility.yul\":4739:4742   */\n      dup5\n        /* \"#utility.yul\":4735:4751   */\n      add\n        /* \"#utility.yul\":4728:4755   */\n      mstore\n        /* \"#utility.yul\":4577:4761   */\n      pop\n        /* \"#utility.yul\":4515:4761   */\n      pop\n      pop\n      pop\n      jump\t// out\n        /* \"#utility.yul\":4767:5144   */\n    tag_66:\n        /* \"#utility.yul\":4855:4858   */\n      0x00\n        /* \"#utility.yul\":4883:4922   */\n      tag_144\n        /* \"#utility.yul\":4916:4921   */\n      dup3\n        /* \"#utility.yul\":4883:4922   */\n      tag_63\n      jump\t// in\n    tag_144:\n        /* \"#utility.yul\":4938:5009   */\n      tag_145\n        /* \"#utility.yul\":5002:5008   */\n      dup2\n        /* \"#utility.yul\":4997:5000   */\n      dup6\n        /* \"#utility.yul\":4938:5009   */\n      tag_64\n      jump\t// in\n    tag_145:\n        /* \"#utility.yul\":4931:5009   */\n      swap4\n      pop\n        /* \"#utility.yul\":5018:5083   */\n      tag_146\n        /* \"#utility.yul\":5076:5082   */\n      dup2\n        /* \"#utility.yul\":5071:5074   */\n      dup6\n        /* \"#utility.yul\":5064:5068   */\n      0x20\n        /* \"#utility.yul\":5057:5062   */\n      dup7\n        /* \"#utility.yul\":5053:5069   */\n      add\n        /* \"#utility.yul\":5018:5083   */\n      tag_65\n      jump\t// in\n    tag_146:\n        /* \"#utility.yul\":5108:5137   */\n      tag_147\n        /* \"#utility.yul\":5130:5136   */\n      dup2\n        /* \"#utility.yul\":5108:5137   */\n      tag_51\n      jump\t// in\n    tag_147:\n        /* \"#utility.yul\":5103:5106   */\n      dup5\n        /* \"#utility.yul\":5099:5138   */\n      add\n        /* \"#utility.yul\":5092:5138   */\n      swap2\n      pop\n        /* \"#utility.yul\":4859:5144   */\n      pop\n        /* \"#utility.yul\":4767:5144   */\n      swap3\n      swap2\n      pop\n      pop\n      jump\t// out\n        /* \"#utility.yul\":5150:5463   */\n    tag_17:\n        /* \"#utility.yul\":5263:5267   */\n      0x00\n        /* \"#utility.yul\":5301:5303   */\n      0x20\n        /* \"#utility.yul\":5290:5299   */\n      dup3\n        /* \"#utility.yul\":5286:5304   */\n      add\n        /* \"#utility.yul\":5278:5304   */\n      swap1\n      pop\n        /* \"#utility.yul\":5350:5359   */\n      dup2\n        /* \"#utility.yul\":5344:5348   */\n      dup2\n        /* \"#utility.yul\":5340:5360   */\n      sub\n        /* \"#utility.yul\":5336:5337   */\n      0x00\n        /* \"#utility.yul\":5325:5334   */\n      dup4\n        /* \"#utility.yul\":5321:5338   */\n      add\n        /* \"#utility.yul\":5314:5361   */\n      mstore\n        /* \"#utility.yul\":5378:5456   */\n      tag_149\n        /* \"#utility.yul\":5451:5455   */\n      dup2\n        /* \"#utility.yul\":5442:5448   */\n      dup5\n        /* \"#utility.yul\":5378:5456   */\n      tag_66\n      jump\t// in\n    tag_149:\n        /* \"#utility.yul\":5370:5456   */\n      swap1\n      pop\n        /* \"#utility.yul\":5150:5463   */\n      swap3\n      swap2\n      pop\n      pop\n      jump\t// out\n        /* \"#utility.yul\":5469:5649   */\n    tag_67:\n        /* \"#utility.yul\":5517:5594   */\n      0x4e487b7100000000000000000000000000000000000000000000000000000000\n        /* \"#utility.yul\":5514:5515   */\n      0x00\n        /* \"#utility.yul\":5507:5595   */\n      mstore\n        /* \"#utility.yul\":5614:5618   */\n      0x22\n        /* \"#utility.yul\":5611:5612   */\n      0x04\n        /* \"#utility.yul\":5604:5619   */\n      mstore\n        /* \"#utility.yul\":5638:5642   */\n      0x24\n        /* \"#utility.yul\":5635:5636   */\n      0x00\n        /* \"#utility.yul\":5628:5643   */\n      revert\n        /* \"#utility.yul\":5655:5975   */\n    tag_31:\n        /* \"#utility.yul\":5699:5705   */\n      0x00\n        /* \"#utility.yul\":5736:5737   */\n      0x02\n        /* \"#utility.yul\":5730:5734   */\n      dup3\n        /* \"#utility.yul\":5726:5738   */\n      div\n        /* \"#utility.yul\":5716:5738   */\n      swap1\n      pop\n        /* \"#utility.yul\":5783:5784   */\n      0x01\n        /* \"#utility.yul\":5777:5781   */\n      dup3\n        /* \"#utility.yul\":5773:5785   */\n      and\n        /* \"#utility.yul\":5804:5822   */\n      dup1\n        /* \"#utility.yul\":5794:5875   */\n      tag_152\n      jumpi\n        /* \"#utility.yul\":5860:5864   */\n      0x7f\n        /* \"#utility.yul\":5852:5858   */\n      dup3\n        /* \"#utility.yul\":5848:5865   */\n      and\n        /* \"#utility.yul\":5838:5865   */\n      swap2\n      pop\n        /* \"#utility.yul\":5794:5875   */\n    tag_152:\n        /* \"#utility.yul\":5922:5924   */\n      0x20\n        /* \"#utility.yul\":5914:5920   */\n      dup3\n        /* \"#utility.yul\":5911:5925   */\n      lt\n        /* \"#utility.yul\":5891:5909   */\n      dup2\n        /* \"#utility.yul\":5888:5926   */\n      sub\n        /* \"#utility.yul\":5885:5969   */\n      tag_153\n      jumpi\n        /* \"#utility.yul\":5941:5959   */\n      tag_154\n      tag_67\n      jump\t// in\n    tag_154:\n        /* \"#utility.yul\":5885:5969   */\n    tag_153:\n        /* \"#utility.yul\":5706:5975   */\n      pop\n        /* \"#utility.yul\":5655:5975   */\n      swap2\n      swap1\n      pop\n      jump\t// out\n        /* \"#utility.yul\":5981:6122   */\n    tag_68:\n        /* \"#utility.yul\":6030:6034   */\n      0x00\n        /* \"#utility.yul\":6053:6056   */\n      dup2\n        /* \"#utility.yul\":6045:6056   */\n      swap1\n      pop\n        /* \"#utility.yul\":6076:6079   */\n      dup2\n        /* \"#utility.yul\":6073:6074   */\n      0x00\n        /* \"#utility.yul\":6066:6080   */\n      mstore\n        /* \"#utility.yul\":6110:6114   */\n      0x20\n        /* \"#utility.yul\":6107:6108   */\n      0x00\n        /* \"#utility.yul\":6097:6115   */\n      keccak256\n        /* \"#utility.yul\":6089:6115   */\n      swap1\n      pop\n        /* \"#utility.yul\":5981:6122   */\n      swap2\n      swap1\n      pop\n      jump\t// out\n        /* \"#utility.yul\":6128:6221   */\n    tag_69:\n        /* \"#utility.yul\":6165:6171   */\n      0x00\n        /* \"#utility.yul\":6212:6214   */\n      0x20\n        /* \"#utility.yul\":6207:6209   */\n      0x1f\n        /* \"#utility.yul\":6200:6205   */\n      dup4\n        /* \"#utility.yul\":6196:6210   */\n      add\n        /* \"#utility.yul\":6192:6215   */\n      div\n        /* \"#utility.yul\":6182:6215   */\n      swap1\n      pop\n        /* \"#utility.yul\":6128:6221   */\n      swap2\n      swap1\n      pop\n      jump\t// out\n        /* \"#utility.yul\":6227:6334   */\n    tag_70:\n        /* \"#utility.yul\":6271:6279   */\n      0x00\n        /* \"#utility.yul\":6321:6326   */\n      dup3\n        /* \"#utility.yul\":6315:6319   */\n      dup3\n        /* \"#utility.yul\":6311:6327   */\n      shl\n        /* \"#utility.yul\":6290:6327   */\n      swap1\n      pop\n        /* \"#utility.yul\":6227:6334   */\n      swap3\n      swap2\n      pop\n      pop\n      jump\t// out\n        /* \"#utility.yul\":6340:6733   */\n    tag_71:\n        /* \"#utility.yul\":6409:6415   */\n      0x00\n        /* \"#utility.yul\":6459:6460   */\n      0x08\n        /* \"#utility.yul\":6447:6457   */\n      dup4\n        /* \"#utility.yul\":6443:6461   */\n      mul\n        /* \"#utility.yul\":6482:6579   */\n      tag_159\n        /* \"#utility.yul\":6512:6578   */\n      0xffffffffffffffffffffffffffffffffffffffffffffffffffffffffffffffff\n        /* \"#utility.yul\":6501:6510   */\n      dup3\n        /* \"#utility.yul\":6482:6579   */\n      tag_70\n      jump\t// in\n    tag_159:\n        /* \"#utility.yul\":6600:6639   */\n      tag_160\n        /* \"#utility.yul\":6630:6638   */\n      dup7\n        /* \"#utility.yul\":6619:6628   */\n      dup4\n        /* \"#utility.yul\":6600:6639   */\n      tag_70\n      jump\t// in\n    tag_160:\n        /* \"#utility.yul\":6588:6639   */\n      swap6\n      pop\n        /* \"#utility.yul\":6672:6676   */\n      dup1\n        /* \"#utility.yul\":6668:6677   */\n      not\n        /* \"#utility.yul\":6661:6666   */\n      dup5\n        /* \"#utility.yul\":6657:6678   */\n      and\n        /* \"#utility.yul\":6648:6678   */\n      swap4\n      pop\n        /* \"#utility.yul\":6721:6725   */\n      dup1\n        /* \"#utility.yul\":6711:6719   */\n      dup7\n        /* \"#utility.yul\":6707:6726   */\n      and\n        /* \"#utility.yul\":6700:6705   */\n      dup5\n        /* \"#utility.yul\":6697:6727   */\n      or\n        /* \"#utility.yul\":6687:6727   */\n      swap3\n      pop\n        /* \"#utility.yul\":6416:6733   */\n      pop\n      pop\n        /* \"#utility.yul\":6340:6733   */\n      swap4\n      swap3\n      pop\n      pop\n      pop\n      jump\t// out\n        /* \"#utility.yul\":6739:6816   */\n    tag_72:\n        /* \"#utility.yul\":6776:6783   */\n      0x00\n        /* \"#utility.yul\":6805:6810   */\n      dup2\n        /* \"#utility.yul\":6794:6810   */\n      swap1\n      pop\n        /* \"#utility.yul\":6739:6816   */\n      swap2\n      swap1\n      pop\n      jump\t// out\n        /* \"#utility.yul\":6822:6882   */\n    tag_73:\n        /* \"#utility.yul\":6850:6853   */\n      0x00\n        /* \"#utility.yul\":6871:6876   */\n      dup2\n        /* \"#utility.yul\":6864:6876   */\n      swap1\n      pop\n        /* \"#utility.yul\":6822:6882   */\n      swap2\n      swap1\n      pop\n      jump\t// out\n        /* \"#utility.yul\":6888:7030   */\n    tag_74:\n        /* \"#utility.yul\":6938:6947   */\n      0x00\n        /* \"#utility.yul\":6971:7024   */\n      tag_164\n        /* \"#utility.yul\":6989:7023   */\n      tag_165\n        /* \"#utility.yul\":6998:7022   */\n      tag_166\n        /* \"#utility.yul\":7016:7021   */\n      dup5\n        /* \"#utility.yul\":6998:7022   */\n      tag_72\n      jump\t// in\n    tag_166:\n        /* \"#utility.yul\":6989:7023   */\n      tag_73\n      jump\t// in\n    tag_165:\n        /* \"#utility.yul\":6971:7024   */\n      tag_72\n      jump\t// in\n    tag_164:\n        /* \"#utility.yul\":6958:7024   */\n      swap1\n      pop\n        /* \"#utility.yul\":6888:7030   */\n      swap2\n      swap1\n      pop\n      jump\t// out\n        /* \"#utility.yul\":7036:7111   */\n    tag_75:\n        /* \"#utility.yul\":7079:7082   */\n      0x00\n        /* \"#utility.yul\":7100:7105   */\n      dup2\n        /* \"#utility.yul\":7093:7105   */\n      swap1\n      pop\n        /* \"#utility.yul\":7036:7111   */\n      swap2\n      swap1\n      pop\n      jump\t// out\n        /* \"#utility.yul\":7117:7386   */\n    tag_76:\n        /* \"#utility.yul\":7227:7266   */\n      tag_169\n        /* \"#utility.yul\":7258:7265   */\n      dup4\n        /* \"#utility.yul\":7227:7266   */\n      tag_74\n      jump\t// in\n    tag_169:\n        /* \"#utility.yul\":7288:7379   */\n      tag_170\n        /* \"#utility.yul\":7337:7378   */\n      tag_171\n        /* \"#utility.yul\":7361:7377   */\n      dup3\n        /* \"#utility.yul\":7337:7378   */\n      tag_75\n      jump\t// in\n    tag_171:\n        /* \"#utility.yul\":7329:7335   */\n      dup5\n        /* \"#utility.yul\":7322:7326   */\n      dup5\n        /* \"#utility.yul\":7316:7327   */\n      sload\n        /* \"#utility.yul\":7288:7379   */\n      tag_71\n      jump\t// in\n    tag_170:\n        /* \"#utility.yul\":7282:7286   */\n      dup3\n        /* \"#utility.yul\":7275:7380   */\n      sstore\n        /* \"#utility.yul\":7193:7386   */\n      pop\n        /* \"#utility.yul\":7117:7386   */\n      pop\n      pop\n      pop\n      jump\t// out\n        /* \"#utility.yul\":7392:7465   */\n    tag_77:\n        /* \"#utility.yul\":7437:7440   */\n      0x00\n        /* \"#utility.yul\":7392:7465   */\n      swap1\n      jump\t// out\n        /* \"#utility.yul\":7471:7660   */\n    tag_78:\n        /* \"#utility.yul\":7548:7580   */\n      tag_174\n      tag_77\n      jump\t// in\n    tag_174:\n        /* \"#utility.yul\":7589:7654   */\n      tag_175\n        /* \"#utility.yul\":7647:7653   */\n      dup2\n        /* \"#utility.yul\":7639:7645   */\n      dup5\n        /* \"#utility.yul\":7633:7637   */\n      dup5\n        /* \"#utility.yul\":7589:7654   */\n      tag_76\n      jump\t// in\n    tag_175:\n        /* \"#utility.yul\":7524:7660   */\n      pop\n        /* \"#utility.yul\":7471:7660   */\n      pop\n      pop\n      jump\t// out\n        /* \"#utility.yul\":7666:7852   */\n    tag_79:\n        /* \"#utility.yul\":7726:7846   */\n    tag_177:\n        /* \"#utility.yul\":7743:7746   */\n      dup2\n        /* \"#utility.yul\":7736:7741   */\n      dup2\n        /* \"#utility.yul\":7733:7747   */\n      lt\n        /* \"#utility.yul\":7726:7846   */\n      iszero\n      tag_179\n      jumpi\n        /* \"#utility.yul\":7797:7836   */\n      tag_180\n        /* \"#utility.yul\":7834:7835   */\n      0x00\n        /* \"#utility.yul\":7827:7832   */\n      dup3\n        /* \"#utility.yul\":7797:7836   */\n      tag_78\n      jump\t// in\n    tag_180:\n        /* \"#utility.yul\":7770:7771   */\n      0x01\n        /* \"#utility.yul\":7763:7768   */\n      dup2\n        /* \"#utility.yul\":7759:7772   */\n      add\n        /* \"#utility.yul\":7750:7772   */\n      swap1\n      pop\n        /* \"#utility.yul\":7726:7846   */\n      jump(tag_177)\n    tag_179:\n        /* \"#utility.yul\":7666:7852   */\n      pop\n      pop\n      jump\t// out\n        /* \"#utility.yul\":7858:8401   */\n    tag_80:\n        /* \"#utility.yul\":7959:7961   */\n      0x1f\n        /* \"#utility.yul\":7954:7957   */\n      dup3\n        /* \"#utility.yul\":7951:7962   */\n      gt\n        /* \"#utility.yul\":7948:8394   */\n      iszero\n      tag_182\n      jumpi\n        /* \"#utility.yul\":7993:8031   */\n      tag_183\n        /* \"#utility.yul\":8025:8030   */\n      dup2\n        /* \"#utility.yul\":7993:8031   */\n      tag_68\n      jump\t// in\n    tag_183:\n        /* \"#utility.yul\":8077:8106   */\n      tag_184\n        /* \"#utility.yul\":8095:8105   */\n      dup5\n        /* \"#utility.yul\":8077:8106   */\n      tag_69\n      jump\t// in\n    tag_184:\n        /* \"#utility.yul\":8067:8075   */\n      dup2\n        /* \"#utility.yul\":8063:8107   */\n      add\n        /* \"#utility.yul\":8260:8262   */\n      0x20\n        /* \"#utility.yul\":8248:8258   */\n      dup6\n        /* \"#utility.yul\":8245:8263   */\n      lt\n        /* \"#utility.yul\":8242:8291   */\n      iszero\n      tag_185\n      jumpi\n        /* \"#utility.yul\":8281:8289   */\n      dup2\n        /* \"#utility.yul\":8266:8289   */\n      swap1\n      pop\n        /* \"#utility.yul\":8242:8291   */\n    tag_185:\n        /* \"#utility.yul\":8304:8384   */\n      tag_186\n        /* \"#utility.yul\":8360:8382   */\n      tag_187\n        /* \"#utility.yul\":8378:8381   */\n      dup6\n        /* \"#utility.yul\":8360:8382   */\n      tag_69\n      jump\t// in\n    tag_187:\n        /* \"#utility.yul\":8350:8358   */\n      dup4\n        /* \"#utility.yul\":8346:8383   */\n      add\n        /* \"#utility.yul\":8333:8344   */\n      dup3\n        /* \"#utility.yul\":8304:8384   */\n      tag_79\n      jump\t// in\n    tag_186:\n        /* \"#utility.yul\":7963:8394   */\n      pop\n      pop\n        /* \"#utility.yul\":7948:8394   */\n    tag_182:\n        /* \"#utility.yul\":7858:8401   */\n      pop\n      pop\n      pop\n      jump\t// out\n        /* \"#utility.yul\":8407:8524   */\n    tag_81:\n        /* \"#utility.yul\":8461:8469   */\n      0x00\n        /* \"#utility.yul\":8511:8516   */\n      dup3\n        /* \"#utility.yul\":8505:8509   */\n      dup3\n        /* \"#utility.yul\":8501:8517   */\n      shr\n        /* \"#utility.yul\":8480:8517   */\n      swap1\n      pop\n        /* \"#utility.yul\":8407:8524   */\n      swap3\n      swap2\n      pop\n      pop\n      jump\t// out\n        /* \"#utility.yul\":8530:8699   */\n    tag_82:\n        /* \"#utility.yul\":8574:8580   */\n      0x00\n        /* \"#utility.yul\":8607:8658   */\n      tag_190\n        /* \"#utility.yul\":8655:8656   */\n      0x00\n        /* \"#utility.yul\":8651:8657   */\n      not\n        /* \"#utility.yul\":8643:8648   */\n      dup5\n        /* \"#utility.yul\":8640:8641   */\n      0x08\n        /* \"#utility.yul\":8636:8649   */\n      mul\n        /* \"#utility.yul\":8607:8658   */\n      tag_81\n      jump\t// in\n    tag_190:\n        /* \"#utility.yul\":8603:8659   */\n      not\n        /* \"#utility.yul\":8688:8692   */\n      dup1\n        /* \"#utility.yul\":8682:8686   */\n      dup4\n        /* \"#utility.yul\":8678:8693   */\n      and\n        /* \"#utility.yul\":8668:8693   */\n      swap2\n      pop\n        /* \"#utility.yul\":8581:8699   */\n      pop\n        /* \"#utility.yul\":8530:8699   */\n      swap3\n      swap2\n      pop\n      pop\n      jump\t// out\n        /* \"#utility.yul\":8704:8999   */\n    tag_83:\n        /* \"#utility.yul\":8780:8784   */\n      0x00\n        /* \"#utility.yul\":8926:8955   */\n      tag_192\n        /* \"#utility.yul\":8951:8954   */\n      dup4\n        /* \"#utility.yul\":8945:8949   */\n      dup4\n        /* \"#utility.yul\":8926:8955   */\n      tag_82\n      jump\t// in\n    tag_192:\n        /* \"#utility.yul\":8918:8955   */\n      swap2\n      pop\n        /* \"#utility.yul\":8988:8991   */\n      dup3\n        /* \"#utility.yul\":8985:8986   */\n      0x02\n        /* \"#utility.yul\":8981:8992   */\n      mul\n        /* \"#utility.yul\":8975:8979   */\n      dup3\n        /* \"#utility.yul\":8972:8993   */\n      or\n        /* \"#utility.yul\":8964:8993   */\n      swap1\n      pop\n        /* \"#utility.yul\":8704:8999   */\n      swap3\n      swap2\n      pop\n      pop\n      jump\t// out\n        /* \"#utility.yul\":9004:10399   */\n    tag_20:\n        /* \"#utility.yul\":9121:9158   */\n      tag_194\n        /* \"#utility.yul\":9154:9157   */\n      dup3\n        /* \"#utility.yul\":9121:9158   */\n      tag_63\n      jump\t// in\n    tag_194:\n        /* \"#utility.yul\":9223:9241   */\n      0xffffffffffffffff\n        /* \"#utility.yul\":9215:9221   */\n      dup2\n        /* \"#utility.yul\":9212:9242   */\n      gt\n        /* \"#utility.yul\":9209:9265   */\n      iszero\n      tag_195\n      jumpi\n        /* \"#utility.yul\":9245:9263   */\n      tag_196\n      tag_52\n      jump\t// in\n    tag_196:\n        /* \"#utility.yul\":9209:9265   */\n    tag_195:\n        /* \"#utility.yul\":9289:9327   */\n      tag_197\n        /* \"#utility.yul\":9321:9325   */\n      dup3\n        /* \"#utility.yul\":9315:9326   */\n      sload\n        /* \"#utility.yul\":9289:9327   */\n      tag_31\n      jump\t// in\n    tag_197:\n        /* \"#utility.yul\":9374:9441   */\n      tag_198\n        /* \"#utility.yul\":9434:9440   */\n      dup3\n        /* \"#utility.yul\":9426:9432   */\n      dup3\n        /* \"#utility.yul\":9420:9424   */\n      dup6\n        /* \"#utility.yul\":9374:9441   */\n      tag_80\n      jump\t// in\n    tag_198:\n        /* \"#utility.yul\":9468:9469   */\n      0x00\n        /* \"#utility.yul\":9492:9496   */\n      0x20\n        /* \"#utility.yul\":9479:9496   */\n      swap1\n      pop\n        /* \"#utility.yul\":9524:9526   */\n      0x1f\n        /* \"#utility.yul\":9516:9522   */\n      dup4\n        /* \"#utility.yul\":9513:9527   */\n      gt\n        /* \"#utility.yul\":9541:9542   */\n      0x01\n        /* \"#utility.yul\":9536:10154   */\n      dup2\n      eq\n      tag_200\n      jumpi\n        /* \"#utility.yul\":10198:10199   */\n      0x00\n        /* \"#utility.yul\":10215:10221   */\n      dup5\n        /* \"#utility.yul\":10212:10289   */\n      iszero\n      tag_201\n      jumpi\n        /* \"#utility.yul\":10264:10273   */\n      dup3\n        /* \"#utility.yul\":10259:10262   */\n      dup8\n        /* \"#utility.yul\":10255:10274   */\n      add\n        /* \"#utility.yul\":10249:10275   */\n      mload\n        /* \"#utility.yul\":10240:10275   */\n      swap1\n      pop\n        /* \"#utility.yul\":10212:10289   */\n    tag_201:\n        /* \"#utility.yul\":10315:10382   */\n      tag_202\n        /* \"#utility.yul\":10375:10381   */\n      dup6\n        /* \"#utility.yul\":10368:10373   */\n      dup3\n        /* \"#utility.yul\":10315:10382   */\n      tag_83\n      jump\t// in\n    tag_202:\n        /* \"#utility.yul\":10309:10313   */\n      dup7\n        /* \"#utility.yul\":10302:10383   */\n      sstore\n        /* \"#utility.yul\":10171:10393   */\n      pop\n        /* \"#utility.yul\":9506:10393   */\n      jump(tag_199)\n        /* \"#utility.yul\":9536:10154   */\n    tag_200:\n        /* \"#utility.yul\":9588:9592   */\n      0x1f\n        /* \"#utility.yul\":9584:9593   */\n      not\n        /* \"#utility.yul\":9576:9582   */\n      dup5\n        /* \"#utility.yul\":9572:9594   */\n      and\n        /* \"#utility.yul\":9622:9659   */\n      tag_203\n        /* \"#utility.yul\":9654:9658   */\n      dup7\n        /* \"#utility.yul\":9622:9659   */\n      tag_68\n      jump\t// in\n    tag_203:\n        /* \"#utility.yul\":9681:9682   */\n      0x00\n        /* \"#utility.yul\":9695:9903   */\n    tag_204:\n        /* \"#utility.yul\":9709:9716   */\n      dup3\n        /* \"#utility.yul\":9706:9707   */\n      dup2\n        /* \"#utility.yul\":9703:9717   */\n      lt\n        /* \"#utility.yul\":9695:9903   */\n      iszero\n      tag_206\n      jumpi\n        /* \"#utility.yul\":9788:9797   */\n      dup5\n        /* \"#utility.yul\":9783:9786   */\n      dup10\n        /* \"#utility.yul\":9779:9798   */\n      add\n        /* \"#utility.yul\":9773:9799   */\n      mload\n        /* \"#utility.yul\":9765:9771   */\n      dup3\n        /* \"#utility.yul\":9758:9800   */\n      sstore\n        /* \"#utility.yul\":9839:9840   */\n      0x01\n        /* \"#utility.yul\":9831:9837   */\n      dup3\n        /* \"#utility.yul\":9827:9841   */\n      add\n        /* \"#utility.yul\":9817:9841   */\n      swap2\n      pop\n        /* \"#utility.yul\":9886:9888   */\n      0x20\n        /* \"#utility.yul\":9875:9884   */\n      dup6\n        /* \"#utility.yul\":9871:9889   */\n      add\n        /* \"#utility.yul\":9858:9889   */\n      swap5\n      pop\n        /* \"#utility.yul\":9732:9736   */\n      0x20\n        /* \"#utility.yul\":9729:9730   */\n      dup2\n        /* \"#utility.yul\":9725:9737   */\n      add\n        /* \"#utility.yul\":9720:9737   */\n      swap1\n      pop\n        /* \"#utility.yul\":9695:9903   */\n      jump(tag_204)\n    tag_206:\n        /* \"#utility.yul\":9931:9937   */\n      dup7\n        /* \"#utility.yul\":9922:9929   */\n      dup4\n        /* \"#utility.yul\":9919:9938   */\n      lt\n        /* \"#utility.yul\":9916:10095   */\n      iszero\n      tag_207\n      jumpi\n        /* \"#utility.yul\":9989:9998   */\n      dup5\n        /* \"#utility.yul\":9984:9987   */\n      dup10\n        /* \"#utility.yul\":9980:9999   */\n      add\n        /* \"#utility.yul\":9974:10000   */\n      mload\n        /* \"#utility.yul\":10032:10080   */\n      tag_208\n        /* \"#utility.yul\":10074:10078   */\n      0x1f\n        /* \"#utility.yul\":10066:10072   */\n      dup10\n        /* \"#utility.yul\":10062:10079   */\n      and\n        /* \"#utility.yul\":10051:10060   */\n      dup3\n        /* \"#utility.yul\":10032:10080   */\n      tag_82\n      jump\t// in\n    tag_208:\n        /* \"#utility.yul\":10024:10030   */\n      dup4\n        /* \"#utility.yul\":10017:10081   */\n      sstore\n        /* \"#utility.yul\":9939:10095   */\n      pop\n        /* \"#utility.yul\":9916:10095   */\n    tag_207:\n        /* \"#utility.yul\":10141:10142   */\n      0x01\n        /* \"#utility.yul\":10137:10138   */\n      0x02\n        /* \"#utility.yul\":10129:10135   */\n      dup9\n        /* \"#utility.yul\":10125:10139   */\n      mul\n        /* \"#utility.yul\":10121:10143   */\n      add\n        /* \"#utility.yul\":10115:10119   */\n      dup9\n        /* \"#utility.yul\":10108:10144   */\n      sstore\n        /* \"#utility.yul\":9543:10154   */\n      pop\n      pop\n      pop\n        /* \"#utility.yul\":9506:10393   */\n    tag_199:\n      pop\n        /* \"#utility.yul\":9096:10399   */\n      pop\n      pop\n      pop\n        /* \"#utility.yul\":9004:10399   */\n      pop\n      pop\n      jump\t// out\n        /* \"#utility.yul\":10405:10523   */\n    tag_84:\n        /* \"#utility.yul\":10492:10516   */\n      tag_210\n        /* \"#utility.yul\":10510:10515   */\n      dup2\n        /* \"#utility.yul\":10492:10516   */\n      tag_60\n      jump\t// in\n    tag_210:\n        /* \"#utility.yul\":10487:10490   */\n      dup3\n        /* \"#utility.yul\":10480:10517   */\n      mstore\n        /* \"#utility.yul\":10405:10523   */\n      pop\n      pop\n      jump\t// out\n        /* \"#utility.yul\":10529:11284   */\n    tag_24:\n        /* \"#utility.yul\":10754:10758   */\n      0x00\n        /* \"#utility.yul\":10792:10795   */\n      0xa0\n        /* \"#utility.yul\":10781:10790   */\n      dup3\n        /* \"#utility.yul\":10777:10796   */\n      add\n        /* \"#utility.yul\":10769:10796   */\n      swap1\n      pop\n        /* \"#utility.yul\":10806:10877   */\n      tag_212\n        /* \"#utility.yul\":10874:10875   */\n      0x00\n        /* \"#utility.yul\":10863:10872   */\n      dup4\n        /* \"#utility.yul\":10859:10876   */\n      add\n        /* \"#utility.yul\":10850:10856   */\n      dup9\n        /* \"#utility.yul\":10806:10877   */\n      tag_84\n      jump\t// in\n    tag_212:\n        /* \"#utility.yul\":10887:10959   */\n      tag_213\n        /* \"#utility.yul\":10955:10957   */\n      0x20\n        /* \"#utility.yul\":10944:10953   */\n      dup4\n        /* \"#utility.yul\":10940:10958   */\n      add\n        /* \"#utility.yul\":10931:10937   */\n      dup8\n        /* \"#utility.yul\":10887:10959   */\n      tag_84\n      jump\t// in\n    tag_213:\n        /* \"#utility.yul\":10969:11041   */\n      tag_214\n        /* \"#utility.yul\":11037:11039   */\n      0x40\n        /* \"#utility.yul\":11026:11035   */\n      dup4\n        /* \"#utility.yul\":11022:11040   */\n      add\n        /* \"#utility.yul\":11013:11019   */\n      dup7\n        /* \"#utility.yul\":10969:11041   */\n      tag_84\n      jump\t// in\n    tag_214:\n        /* \"#utility.yul\":11051:11123   */\n      tag_215\n        /* \"#utility.yul\":11119:11121   */\n      0x60\n        /* \"#utility.yul\":11108:11117   */\n      dup4\n        /* \"#utility.yul\":11104:11122   */\n      add\n        /* \"#utility.yul\":11095:11101   */\n      dup6\n        /* \"#utility.yul\":11051:11123   */\n      tag_84\n      jump\t// in\n    tag_215:\n        /* \"#utility.yul\":11171:11180   */\n      dup2\n        /* \"#utility.yul\":11165:11169   */\n      dup2\n        /* \"#utility.yul\":11161:11181   */\n      sub\n        /* \"#utility.yul\":11155:11158   */\n      0x80\n        /* \"#utility.yul\":11144:11153   */\n      dup4\n        /* \"#utility.yul\":11140:11159   */\n      add\n        /* \"#utility.yul\":11133:11182   */\n      mstore\n        /* \"#utility.yul\":11199:11277   */\n      tag_216\n        /* \"#utility.yul\":11272:11276   */\n      dup2\n        /* \"#utility.yul\":11263:11269   */\n      dup5\n        /* \"#utility.yul\":11199:11277   */\n      tag_66\n      jump\t// in\n    tag_216:\n        /* \"#utility.yul\":11191:11277   */\n      swap1\n      pop\n        /* \"#utility.yul\":10529:11284   */\n      swap7\n      swap6\n      pop\n      pop\n      pop\n      pop\n      pop\n      pop\n      jump\t// out\n        /* \"#utility.yul\":11290:11433   */\n    tag_85:\n        /* \"#utility.yul\":11347:11352   */\n      0x00\n        /* \"#utility.yul\":11378:11384   */\n      dup2\n        /* \"#utility.yul\":11372:11385   */\n      mload\n        /* \"#utility.yul\":11363:11385   */\n      swap1\n      pop\n        /* \"#utility.yul\":11394:11427   */\n      tag_218\n        /* \"#utility.yul\":11421:11426   */\n      dup2\n        /* \"#utility.yul\":11394:11427   */\n      tag_61\n      jump\t// in\n    tag_218:\n        /* \"#utility.yul\":11290:11433   */\n      swap3\n      swap2\n      pop\n      pop\n      jump\t// out\n        /* \"#utility.yul\":11439:11790   */\n    tag_45:\n        /* \"#utility.yul\":11509:11515   */\n      0x00\n        /* \"#utility.yul\":11558:11560   */\n      0x20\n        /* \"#utility.yul\":11546:11555   */\n      dup3\n        /* \"#utility.yul\":11537:11544   */\n      dup5\n        /* \"#utility.yul\":11533:11556   */\n      sub\n        /* \"#utility.yul\":11529:11561   */\n      slt\n        /* \"#utility.yul\":11526:11645   */\n      iszero\n      tag_220\n      jumpi\n        /* \"#utility.yul\":11564:11643   */\n      tag_221\n      tag_47\n      jump\t// in\n    tag_221:\n        /* \"#utility.yul\":11526:11645   */\n    tag_220:\n        /* \"#utility.yul\":11684:11685   */\n      0x00\n        /* \"#utility.yul\":11709:11773   */\n      tag_222\n        /* \"#utility.yul\":11765:11772   */\n      dup5\n        /* \"#utility.yul\":11756:11762   */\n      dup3\n        /* \"#utility.yul\":11745:11754   */\n      dup6\n        /* \"#utility.yul\":11741:11763   */\n      add\n        /* \"#utility.yul\":11709:11773   */\n      tag_85\n      jump\t// in\n    tag_222:\n        /* \"#utility.yul\":11699:11773   */\n      swap2\n      pop\n        /* \"#utility.yul\":11655:11783   */\n      pop\n        /* \"#utility.yul\":11439:11790   */\n      swap3\n      swap2\n      pop\n      pop\n      jump\t// out\n\n    auxdata: 0xa2646970667358221220bad20bf23ce96c52a5a7f992edf2556ed5e10e28c8fe784e7b6ae4d5712101dc64736f6c63430008110033\n}\n",
				"bytecode": {
					"linkReferences": {},
					"object": "60806040523480156200001157600080fd5b5060405162000f4638038062000f468339818101604052810190620000379190620001e3565b80600090816200004891906200047f565b505062000566565b6000604051905090565b600080fd5b600080fd5b600080fd5b600080fd5b6000601f19601f8301169050919050565b7f4e487b7100000000000000000000000000000000000000000000000000000000600052604160045260246000fd5b620000b9826200006e565b810181811067ffffffffffffffff82111715620000db57620000da6200007f565b5b80604052505050565b6000620000f062000050565b9050620000fe8282620000ae565b919050565b600067ffffffffffffffff8211156200012157620001206200007f565b5b6200012c826200006e565b9050602081019050919050565b60005b83811015620001595780820151818401526020810190506200013c565b60008484015250505050565b60006200017c620001768462000103565b620000e4565b9050828152602081018484840111156200019b576200019a62000069565b5b620001a884828562000139565b509392505050565b600082601f830112620001c857620001c762000064565b5b8151620001da84826020860162000165565b91505092915050565b600060208284031215620001fc57620001fb6200005a565b5b600082015167ffffffffffffffff8111156200021d576200021c6200005f565b5b6200022b84828501620001b0565b91505092915050565b600081519050919050565b7f4e487b7100000000000000000000000000000000000000000000000000000000600052602260045260246000fd5b600060028204905060018216806200028757607f821691505b6020821081036200029d576200029c6200023f565b5b50919050565b60008190508160005260206000209050919050565b60006020601f8301049050919050565b600082821b905092915050565b600060088302620003077fffffffffffffffffffffffffffffffffffffffffffffffffffffffffffffffff82620002c8565b620003138683620002c8565b95508019841693508086168417925050509392505050565b6000819050919050565b6000819050919050565b6000620003606200035a62000354846200032b565b62000335565b6200032b565b9050919050565b6000819050919050565b6200037c836200033f565b620003946200038b8262000367565b848454620002d5565b825550505050565b600090565b620003ab6200039c565b620003b881848462000371565b505050565b5b81811015620003e057620003d4600082620003a1565b600181019050620003be565b5050565b601f8211156200042f57620003f981620002a3565b6200040484620002b8565b8101602085101562000414578190505b6200042c6200042385620002b8565b830182620003bd565b50505b505050565b600082821c905092915050565b6000620004546000198460080262000434565b1980831691505092915050565b60006200046f838362000441565b9150826002028217905092915050565b6200048a8262000234565b67ffffffffffffffff811115620004a657620004a56200007f565b5b620004b282546200026e565b620004bf828285620003e4565b600060209050601f831160018114620004f75760008415620004e2578287015190505b620004ee858262000461565b8655506200055e565b601f1984166200050786620002a3565b60005b8281101562000531578489015182556001820191506020850194506020810190506200050a565b868310156200055157848901516200054d601f89168262000441565b8355505b6001600288020188555050505b505050505050565b6109d080620005766000396000f3fe608060405234801561001057600080fd5b50600436106100415760003560e01c80638d86c2ad14610046578063a413686214610062578063cfae32171461007e575b600080fd5b610060600480360381019061005b91906104c1565b61009c565b005b61007c6004803603810190610077919061051d565b6100f6565b005b610086610150565b60405161009391906105e5565b60405180910390f35b81600090816100ab919061081d565b507ffd1fe8fb6b9b0c76d4539b55dea0c817720153be1279cefedacf48b09914498833326100d76101e2565b84866040516100ea9594939291906108fe565b60405180910390a15050565b8060009081610105919061081d565b507ffd1fe8fb6b9b0c76d4539b55dea0c817720153be1279cefedacf48b09914498833326101316101e2565b6000856040516101459594939291906108fe565b60405180910390a150565b60606000805461015f90610636565b80601f016020809104026020016040519081016040528092919081815260200182805461018b90610636565b80156101d85780601f106101ad576101008083540402835291602001916101d8565b820191906000526020600020905b8154815290600101906020018083116101bb57829003601f168201915b5050505050905090565b6000806000905060014603610209577325ace71c97b33cc4729cf772ae268934f7ab5fa190505b6005460361022957735086d1eef304eb5284a0f6720f79403b4e9be29490505b600a46148061023957506101a446145b156102565773420000000000000000000000000000000000000790505b8073ffffffffffffffffffffffffffffffffffffffff163373ffffffffffffffffffffffffffffffffffffffff1614610293576000915050610306565b8073ffffffffffffffffffffffffffffffffffffffff16636e296e456040518163ffffffff1660e01b8152600401602060405180830381865afa1580156102de573d6000803e3d6000fd5b505050506040513d601f19601f82011682018060405250810190610302919061096d565b9150505b90565b6000604051905090565b600080fd5b600080fd5b600080fd5b600080fd5b6000601f19601f8301169050919050565b7f4e487b7100000000000000000000000000000000000000000000000000000000600052604160045260246000fd5b61037082610327565b810181811067ffffffffffffffff8211171561038f5761038e610338565b5b80604052505050565b60006103a2610309565b90506103ae8282610367565b919050565b600067ffffffffffffffff8211156103ce576103cd610338565b5b6103d782610327565b9050602081019050919050565b82818337600083830152505050565b6000610406610401846103b3565b610398565b90508281526020810184848401111561042257610421610322565b5b61042d8482856103e4565b509392505050565b600082601f83011261044a5761044961031d565b5b813561045a8482602086016103f3565b91505092915050565b600073ffffffffffffffffffffffffffffffffffffffff82169050919050565b600061048e82610463565b9050919050565b61049e81610483565b81146104a957600080fd5b50565b6000813590506104bb81610495565b92915050565b600080604083850312156104d8576104d7610313565b5b600083013567ffffffffffffffff8111156104f6576104f5610318565b5b61050285828601610435565b9250506020610513858286016104ac565b9150509250929050565b60006020828403121561053357610532610313565b5b600082013567ffffffffffffffff81111561055157610550610318565b5b61055d84828501610435565b91505092915050565b600081519050919050565b600082825260208201905092915050565b60005b838110156105a0578082015181840152602081019050610585565b60008484015250505050565b60006105b782610566565b6105c18185610571565b93506105d1818560208601610582565b6105da81610327565b840191505092915050565b600060208201905081810360008301526105ff81846105ac565b905092915050565b7f4e487b7100000000000000000000000000000000000000000000000000000000600052602260045260246000fd5b6000600282049050600182168061064e57607f821691505b60208210810361066157610660610607565b5b50919050565b60008190508160005260206000209050919050565b60006020601f8301049050919050565b600082821b905092915050565b6000600883026106c97fffffffffffffffffffffffffffffffffffffffffffffffffffffffffffffffff8261068c565b6106d3868361068c565b95508019841693508086168417925050509392505050565b6000819050919050565b6000819050919050565b600061071a610715610710846106eb565b6106f5565b6106eb565b9050919050565b6000819050919050565b610734836106ff565b61074861074082610721565b848454610699565b825550505050565b600090565b61075d610750565b61076881848461072b565b505050565b5b8181101561078c57610781600082610755565b60018101905061076e565b5050565b601f8211156107d1576107a281610667565b6107ab8461067c565b810160208510156107ba578190505b6107ce6107c68561067c565b83018261076d565b50505b505050565b600082821c905092915050565b60006107f4600019846008026107d6565b1980831691505092915050565b600061080d83836107e3565b9150826002028217905092915050565b61082682610566565b67ffffffffffffffff81111561083f5761083e610338565b5b6108498254610636565b610854828285610790565b600060209050601f8311600181146108875760008415610875578287015190505b61087f8582610801565b8655506108e7565b601f19841661089586610667565b60005b828110156108bd57848901518255600182019150602085019450602081019050610898565b868310156108da57848901516108d6601f8916826107e3565b8355505b6001600288020188555050505b505050505050565b6108f881610483565b82525050565b600060a08201905061091360008301886108ef565b61092060208301876108ef565b61092d60408301866108ef565b61093a60608301856108ef565b818103608083015261094c81846105ac565b90509695505050505050565b60008151905061096781610495565b92915050565b60006020828403121561098357610982610313565b5b600061099184828501610958565b9150509291505056fea2646970667358221220bad20bf23ce96c52a5a7f992edf2556ed5e10e28c8fe784e7b6ae4d5712101dc64736f6c63430008110033",
					"opcodes": "PUSH1 0x80 PUSH1 0x40 MSTORE CALLVALUE DUP1 ISZERO PUSH3 0x11 JUMPI PUSH1 0x0 DUP1 REVERT JUMPDEST POP PUSH1 0x40 MLOAD PUSH3 0xF46 CODESIZE SUB DUP1 PUSH3 0xF46 DUP4 CODECOPY DUP2 DUP2 ADD PUSH1 0x40 MSTORE DUP2 ADD SWAP1 PUSH3 0x37 SWAP2 SWAP1 PUSH3 0x1E3 JUMP JUMPDEST DUP1 PUSH1 0x0 SWAP1 DUP2 PUSH3 0x48 SWAP2 SWAP1 PUSH3 0x47F JUMP JUMPDEST POP POP PUSH3 0x566 JUMP JUMPDEST PUSH1 0x0 PUSH1 0x40 MLOAD SWAP1 POP SWAP1 JUMP JUMPDEST PUSH1 0x0 DUP1 REVERT JUMPDEST PUSH1 0x0 DUP1 REVERT JUMPDEST PUSH1 0x0 DUP1 REVERT JUMPDEST PUSH1 0x0 DUP1 REVERT JUMPDEST PUSH1 0x0 PUSH1 0x1F NOT PUSH1 0x1F DUP4 ADD AND SWAP1 POP SWAP2 SWAP1 POP JUMP JUMPDEST PUSH32 0x4E487B7100000000000000000000000000000000000000000000000000000000 PUSH1 0x0 MSTORE PUSH1 0x41 PUSH1 0x4 MSTORE PUSH1 0x24 PUSH1 0x0 REVERT JUMPDEST PUSH3 0xB9 DUP3 PUSH3 0x6E JUMP JUMPDEST DUP2 ADD DUP2 DUP2 LT PUSH8 0xFFFFFFFFFFFFFFFF DUP3 GT OR ISZERO PUSH3 0xDB JUMPI PUSH3 0xDA PUSH3 0x7F JUMP JUMPDEST JUMPDEST DUP1 PUSH1 0x40 MSTORE POP POP POP JUMP JUMPDEST PUSH1 0x0 PUSH3 0xF0 PUSH3 0x50 JUMP JUMPDEST SWAP1 POP PUSH3 0xFE DUP3 DUP3 PUSH3 0xAE JUMP JUMPDEST SWAP2 SWAP1 POP JUMP JUMPDEST PUSH1 0x0 PUSH8 0xFFFFFFFFFFFFFFFF DUP3 GT ISZERO PUSH3 0x121 JUMPI PUSH3 0x120 PUSH3 0x7F JUMP JUMPDEST JUMPDEST PUSH3 0x12C DUP3 PUSH3 0x6E JUMP JUMPDEST SWAP1 POP PUSH1 0x20 DUP2 ADD SWAP1 POP SWAP2 SWAP1 POP JUMP JUMPDEST PUSH1 0x0 JUMPDEST DUP4 DUP2 LT ISZERO PUSH3 0x159 JUMPI DUP1 DUP3 ADD MLOAD DUP2 DUP5 ADD MSTORE PUSH1 0x20 DUP2 ADD SWAP1 POP PUSH3 0x13C JUMP JUMPDEST PUSH1 0x0 DUP5 DUP5 ADD MSTORE POP POP POP POP JUMP JUMPDEST PUSH1 0x0 PUSH3 0x17C PUSH3 0x176 DUP5 PUSH3 0x103 JUMP JUMPDEST PUSH3 0xE4 JUMP JUMPDEST SWAP1 POP DUP3 DUP2 MSTORE PUSH1 0x20 DUP2 ADD DUP5 DUP5 DUP5 ADD GT ISZERO PUSH3 0x19B JUMPI PUSH3 0x19A PUSH3 0x69 JUMP JUMPDEST JUMPDEST PUSH3 0x1A8 DUP5 DUP3 DUP6 PUSH3 0x139 JUMP JUMPDEST POP SWAP4 SWAP3 POP POP POP JUMP JUMPDEST PUSH1 0x0 DUP3 PUSH1 0x1F DUP4 ADD SLT PUSH3 0x1C8 JUMPI PUSH3 0x1C7 PUSH3 0x64 JUMP JUMPDEST JUMPDEST DUP2 MLOAD PUSH3 0x1DA DUP5 DUP3 PUSH1 0x20 DUP7 ADD PUSH3 0x165 JUMP JUMPDEST SWAP2 POP POP SWAP3 SWAP2 POP POP JUMP JUMPDEST PUSH1 0x0 PUSH1 0x20 DUP3 DUP5 SUB SLT ISZERO PUSH3 0x1FC JUMPI PUSH3 0x1FB PUSH3 0x5A JUMP JUMPDEST JUMPDEST PUSH1 0x0 DUP3 ADD MLOAD PUSH8 0xFFFFFFFFFFFFFFFF DUP2 GT ISZERO PUSH3 0x21D JUMPI PUSH3 0x21C PUSH3 0x5F JUMP JUMPDEST JUMPDEST PUSH3 0x22B DUP5 DUP3 DUP6 ADD PUSH3 0x1B0 JUMP JUMPDEST SWAP2 POP POP SWAP3 SWAP2 POP POP JUMP JUMPDEST PUSH1 0x0 DUP2 MLOAD SWAP1 POP SWAP2 SWAP1 POP JUMP JUMPDEST PUSH32 0x4E487B7100000000000000000000000000000000000000000000000000000000 PUSH1 0x0 MSTORE PUSH1 0x22 PUSH1 0x4 MSTORE PUSH1 0x24 PUSH1 0x0 REVERT JUMPDEST PUSH1 0x0 PUSH1 0x2 DUP3 DIV SWAP1 POP PUSH1 0x1 DUP3 AND DUP1 PUSH3 0x287 JUMPI PUSH1 0x7F DUP3 AND SWAP2 POP JUMPDEST PUSH1 0x20 DUP3 LT DUP2 SUB PUSH3 0x29D JUMPI PUSH3 0x29C PUSH3 0x23F JUMP JUMPDEST JUMPDEST POP SWAP2 SWAP1 POP JUMP JUMPDEST PUSH1 0x0 DUP2 SWAP1 POP DUP2 PUSH1 0x0 MSTORE PUSH1 0x20 PUSH1 0x0 KECCAK256 SWAP1 POP SWAP2 SWAP1 POP JUMP JUMPDEST PUSH1 0x0 PUSH1 0x20 PUSH1 0x1F DUP4 ADD DIV SWAP1 POP SWAP2 SWAP1 POP JUMP JUMPDEST PUSH1 0x0 DUP3 DUP3 SHL SWAP1 POP SWAP3 SWAP2 POP POP JUMP JUMPDEST PUSH1 0x0 PUSH1 0x8 DUP4 MUL PUSH3 0x307 PUSH32 0xFFFFFFFFFFFFFFFFFFFFFFFFFFFFFFFFFFFFFFFFFFFFFFFFFFFFFFFFFFFFFFFF DUP3 PUSH3 0x2C8 JUMP JUMPDEST PUSH3 0x313 DUP7 DUP4 PUSH3 0x2C8 JUMP JUMPDEST SWAP6 POP DUP1 NOT DUP5 AND SWAP4 POP DUP1 DUP7 AND DUP5 OR SWAP3 POP POP POP SWAP4 SWAP3 POP POP POP JUMP JUMPDEST PUSH1 0x0 DUP2 SWAP1 POP SWAP2 SWAP1 POP JUMP JUMPDEST PUSH1 0x0 DUP2 SWAP1 POP SWAP2 SWAP1 POP JUMP JUMPDEST PUSH1 0x0 PUSH3 0x360 PUSH3 0x35A PUSH3 0x354 DUP5 PUSH3 0x32B JUMP JUMPDEST PUSH3 0x335 JUMP JUMPDEST PUSH3 0x32B JUMP JUMPDEST SWAP1 POP SWAP2 SWAP1 POP JUMP JUMPDEST PUSH1 0x0 DUP2 SWAP1 POP SWAP2 SWAP1 POP JUMP JUMPDEST PUSH3 0x37C DUP4 PUSH3 0x33F JUMP JUMPDEST PUSH3 0x394 PUSH3 0x38B DUP3 PUSH3 0x367 JUMP JUMPDEST DUP5 DUP5 SLOAD PUSH3 0x2D5 JUMP JUMPDEST DUP3 SSTORE POP POP POP POP JUMP JUMPDEST PUSH1 0x0 SWAP1 JUMP JUMPDEST PUSH3 0x3AB PUSH3 0x39C JUMP JUMPDEST PUSH3 0x3B8 DUP2 DUP5 DUP5 PUSH3 0x371 JUMP JUMPDEST POP POP POP JUMP JUMPDEST JUMPDEST DUP2 DUP2 LT ISZERO PUSH3 0x3E0 JUMPI PUSH3 0x3D4 PUSH1 0x0 DUP3 PUSH3 0x3A1 JUMP JUMPDEST PUSH1 0x1 DUP2 ADD SWAP1 POP PUSH3 0x3BE JUMP JUMPDEST POP POP JUMP JUMPDEST PUSH1 0x1F DUP3 GT ISZERO PUSH3 0x42F JUMPI PUSH3 0x3F9 DUP2 PUSH3 0x2A3 JUMP JUMPDEST PUSH3 0x404 DUP5 PUSH3 0x2B8 JUMP JUMPDEST DUP2 ADD PUSH1 0x20 DUP6 LT ISZERO PUSH3 0x414 JUMPI DUP2 SWAP1 POP JUMPDEST PUSH3 0x42C PUSH3 0x423 DUP6 PUSH3 0x2B8 JUMP JUMPDEST DUP4 ADD DUP3 PUSH3 0x3BD JUMP JUMPDEST POP POP JUMPDEST POP POP POP JUMP JUMPDEST PUSH1 0x0 DUP3 DUP3 SHR SWAP1 POP SWAP3 SWAP2 POP POP JUMP JUMPDEST PUSH1 0x0 PUSH3 0x454 PUSH1 0x0 NOT DUP5 PUSH1 0x8 MUL PUSH3 0x434 JUMP JUMPDEST NOT DUP1 DUP4 AND SWAP2 POP POP SWAP3 SWAP2 POP POP JUMP JUMPDEST PUSH1 0x0 PUSH3 0x46F DUP4 DUP4 PUSH3 0x441 JUMP JUMPDEST SWAP2 POP DUP3 PUSH1 0x2 MUL DUP3 OR SWAP1 POP SWAP3 SWAP2 POP POP JUMP JUMPDEST PUSH3 0x48A DUP3 PUSH3 0x234 JUMP JUMPDEST PUSH8 0xFFFFFFFFFFFFFFFF DUP2 GT ISZERO PUSH3 0x4A6 JUMPI PUSH3 0x4A5 PUSH3 0x7F JUMP JUMPDEST JUMPDEST PUSH3 0x4B2 DUP3 SLOAD PUSH3 0x26E JUMP JUMPDEST PUSH3 0x4BF DUP3 DUP3 DUP6 PUSH3 0x3E4 JUMP JUMPDEST PUSH1 0x0 PUSH1 0x20 SWAP1 POP PUSH1 0x1F DUP4 GT PUSH1 0x1 DUP2 EQ PUSH3 0x4F7 JUMPI PUSH1 0x0 DUP5 ISZERO PUSH3 0x4E2 JUMPI DUP3 DUP8 ADD MLOAD SWAP1 POP JUMPDEST PUSH3 0x4EE DUP6 DUP3 PUSH3 0x461 JUMP JUMPDEST DUP7 SSTORE POP PUSH3 0x55E JUMP JUMPDEST PUSH1 0x1F NOT DUP5 AND PUSH3 0x507 DUP7 PUSH3 0x2A3 JUMP JUMPDEST PUSH1 0x0 JUMPDEST DUP3 DUP2 LT ISZERO PUSH3 0x531 JUMPI DUP5 DUP10 ADD MLOAD DUP3 SSTORE PUSH1 0x1 DUP3 ADD SWAP2 POP PUSH1 0x20 DUP6 ADD SWAP5 POP PUSH1 0x20 DUP2 ADD SWAP1 POP PUSH3 0x50A JUMP JUMPDEST DUP7 DUP4 LT ISZERO PUSH3 0x551 JUMPI DUP5 DUP10 ADD MLOAD PUSH3 0x54D PUSH1 0x1F DUP10 AND DUP3 PUSH3 0x441 JUMP JUMPDEST DUP4 SSTORE POP JUMPDEST PUSH1 0x1 PUSH1 0x2 DUP9 MUL ADD DUP9 SSTORE POP POP POP JUMPDEST POP POP POP POP POP POP JUMP JUMPDEST PUSH2 0x9D0 DUP1 PUSH3 0x576 PUSH1 0x0 CODECOPY PUSH1 0x0 RETURN INVALID PUSH1 0x80 PUSH1 0x40 MSTORE CALLVALUE DUP1 ISZERO PUSH2 0x10 JUMPI PUSH1 0x0 DUP1 REVERT JUMPDEST POP PUSH1 0x4 CALLDATASIZE LT PUSH2 0x41 JUMPI PUSH1 0x0 CALLDATALOAD PUSH1 0xE0 SHR DUP1 PUSH4 0x8D86C2AD EQ PUSH2 0x46 JUMPI DUP1 PUSH4 0xA4136862 EQ PUSH2 0x62 JUMPI DUP1 PUSH4 0xCFAE3217 EQ PUSH2 0x7E JUMPI JUMPDEST PUSH1 0x0 DUP1 REVERT JUMPDEST PUSH2 0x60 PUSH1 0x4 DUP1 CALLDATASIZE SUB DUP2 ADD SWAP1 PUSH2 0x5B SWAP2 SWAP1 PUSH2 0x4C1 JUMP JUMPDEST PUSH2 0x9C JUMP JUMPDEST STOP JUMPDEST PUSH2 0x7C PUSH1 0x4 DUP1 CALLDATASIZE SUB DUP2 ADD SWAP1 PUSH2 0x77 SWAP2 SWAP1 PUSH2 0x51D JUMP JUMPDEST PUSH2 0xF6 JUMP JUMPDEST STOP JUMPDEST PUSH2 0x86 PUSH2 0x150 JUMP JUMPDEST PUSH1 0x40 MLOAD PUSH2 0x93 SWAP2 SWAP1 PUSH2 0x5E5 JUMP JUMPDEST PUSH1 0x40 MLOAD DUP1 SWAP2 SUB SWAP1 RETURN JUMPDEST DUP2 PUSH1 0x0 SWAP1 DUP2 PUSH2 0xAB SWAP2 SWAP1 PUSH2 0x81D JUMP JUMPDEST POP PUSH32 0xFD1FE8FB6B9B0C76D4539B55DEA0C817720153BE1279CEFEDACF48B099144988 CALLER ORIGIN PUSH2 0xD7 PUSH2 0x1E2 JUMP JUMPDEST DUP5 DUP7 PUSH1 0x40 MLOAD PUSH2 0xEA SWAP6 SWAP5 SWAP4 SWAP3 SWAP2 SWAP1 PUSH2 0x8FE JUMP JUMPDEST PUSH1 0x40 MLOAD DUP1 SWAP2 SUB SWAP1 LOG1 POP POP JUMP JUMPDEST DUP1 PUSH1 0x0 SWAP1 DUP2 PUSH2 0x105 SWAP2 SWAP1 PUSH2 0x81D JUMP JUMPDEST POP PUSH32 0xFD1FE8FB6B9B0C76D4539B55DEA0C817720153BE1279CEFEDACF48B099144988 CALLER ORIGIN PUSH2 0x131 PUSH2 0x1E2 JUMP JUMPDEST PUSH1 0x0 DUP6 PUSH1 0x40 MLOAD PUSH2 0x145 SWAP6 SWAP5 SWAP4 SWAP3 SWAP2 SWAP1 PUSH2 0x8FE JUMP JUMPDEST PUSH1 0x40 MLOAD DUP1 SWAP2 SUB SWAP1 LOG1 POP JUMP JUMPDEST PUSH1 0x60 PUSH1 0x0 DUP1 SLOAD PUSH2 0x15F SWAP1 PUSH2 0x636 JUMP JUMPDEST DUP1 PUSH1 0x1F ADD PUSH1 0x20 DUP1 SWAP2 DIV MUL PUSH1 0x20 ADD PUSH1 0x40 MLOAD SWAP1 DUP2 ADD PUSH1 0x40 MSTORE DUP1 SWAP3 SWAP2 SWAP1 DUP2 DUP2 MSTORE PUSH1 0x20 ADD DUP3 DUP1 SLOAD PUSH2 0x18B SWAP1 PUSH2 0x636 JUMP JUMPDEST DUP1 ISZERO PUSH2 0x1D8 JUMPI DUP1 PUSH1 0x1F LT PUSH2 0x1AD JUMPI PUSH2 0x100 DUP1 DUP4 SLOAD DIV MUL DUP4 MSTORE SWAP2 PUSH1 0x20 ADD SWAP2 PUSH2 0x1D8 JUMP JUMPDEST DUP3 ADD SWAP2 SWAP1 PUSH1 0x0 MSTORE PUSH1 0x20 PUSH1 0x0 KECCAK256 SWAP1 JUMPDEST DUP2 SLOAD DUP2 MSTORE SWAP1 PUSH1 0x1 ADD SWAP1 PUSH1 0x20 ADD DUP1 DUP4 GT PUSH2 0x1BB JUMPI DUP3 SWAP1 SUB PUSH1 0x1F AND DUP3 ADD SWAP2 JUMPDEST POP POP POP POP POP SWAP1 POP SWAP1 JUMP JUMPDEST PUSH1 0x0 DUP1 PUSH1 0x0 SWAP1 POP PUSH1 0x1 CHAINID SUB PUSH2 0x209 JUMPI PUSH20 0x25ACE71C97B33CC4729CF772AE268934F7AB5FA1 SWAP1 POP JUMPDEST PUSH1 0x5 CHAINID SUB PUSH2 0x229 JUMPI PUSH20 0x5086D1EEF304EB5284A0F6720F79403B4E9BE294 SWAP1 POP JUMPDEST PUSH1 0xA CHAINID EQ DUP1 PUSH2 0x239 JUMPI POP PUSH2 0x1A4 CHAINID EQ JUMPDEST ISZERO PUSH2 0x256 JUMPI PUSH20 0x4200000000000000000000000000000000000007 SWAP1 POP JUMPDEST DUP1 PUSH20 0xFFFFFFFFFFFFFFFFFFFFFFFFFFFFFFFFFFFFFFFF AND CALLER PUSH20 0xFFFFFFFFFFFFFFFFFFFFFFFFFFFFFFFFFFFFFFFF AND EQ PUSH2 0x293 JUMPI PUSH1 0x0 SWAP2 POP POP PUSH2 0x306 JUMP JUMPDEST DUP1 PUSH20 0xFFFFFFFFFFFFFFFFFFFFFFFFFFFFFFFFFFFFFFFF AND PUSH4 0x6E296E45 PUSH1 0x40 MLOAD DUP2 PUSH4 0xFFFFFFFF AND PUSH1 0xE0 SHL DUP2 MSTORE PUSH1 0x4 ADD PUSH1 0x20 PUSH1 0x40 MLOAD DUP1 DUP4 SUB DUP2 DUP7 GAS STATICCALL ISZERO DUP1 ISZERO PUSH2 0x2DE JUMPI RETURNDATASIZE PUSH1 0x0 DUP1 RETURNDATACOPY RETURNDATASIZE PUSH1 0x0 REVERT JUMPDEST POP POP POP POP PUSH1 0x40 MLOAD RETURNDATASIZE PUSH1 0x1F NOT PUSH1 0x1F DUP3 ADD AND DUP3 ADD DUP1 PUSH1 0x40 MSTORE POP DUP2 ADD SWAP1 PUSH2 0x302 SWAP2 SWAP1 PUSH2 0x96D JUMP JUMPDEST SWAP2 POP POP JUMPDEST SWAP1 JUMP JUMPDEST PUSH1 0x0 PUSH1 0x40 MLOAD SWAP1 POP SWAP1 JUMP JUMPDEST PUSH1 0x0 DUP1 REVERT JUMPDEST PUSH1 0x0 DUP1 REVERT JUMPDEST PUSH1 0x0 DUP1 REVERT JUMPDEST PUSH1 0x0 DUP1 REVERT JUMPDEST PUSH1 0x0 PUSH1 0x1F NOT PUSH1 0x1F DUP4 ADD AND SWAP1 POP SWAP2 SWAP1 POP JUMP JUMPDEST PUSH32 0x4E487B7100000000000000000000000000000000000000000000000000000000 PUSH1 0x0 MSTORE PUSH1 0x41 PUSH1 0x4 MSTORE PUSH1 0x24 PUSH1 0x0 REVERT JUMPDEST PUSH2 0x370 DUP3 PUSH2 0x327 JUMP JUMPDEST DUP2 ADD DUP2 DUP2 LT PUSH8 0xFFFFFFFFFFFFFFFF DUP3 GT OR ISZERO PUSH2 0x38F JUMPI PUSH2 0x38E PUSH2 0x338 JUMP JUMPDEST JUMPDEST DUP1 PUSH1 0x40 MSTORE POP POP POP JUMP JUMPDEST PUSH1 0x0 PUSH2 0x3A2 PUSH2 0x309 JUMP JUMPDEST SWAP1 POP PUSH2 0x3AE DUP3 DUP3 PUSH2 0x367 JUMP JUMPDEST SWAP2 SWAP1 POP JUMP JUMPDEST PUSH1 0x0 PUSH8 0xFFFFFFFFFFFFFFFF DUP3 GT ISZERO PUSH2 0x3CE JUMPI PUSH2 0x3CD PUSH2 0x338 JUMP JUMPDEST JUMPDEST PUSH2 0x3D7 DUP3 PUSH2 0x327 JUMP JUMPDEST SWAP1 POP PUSH1 0x20 DUP2 ADD SWAP1 POP SWAP2 SWAP1 POP JUMP JUMPDEST DUP3 DUP2 DUP4 CALLDATACOPY PUSH1 0x0 DUP4 DUP4 ADD MSTORE POP POP POP JUMP JUMPDEST PUSH1 0x0 PUSH2 0x406 PUSH2 0x401 DUP5 PUSH2 0x3B3 JUMP JUMPDEST PUSH2 0x398 JUMP JUMPDEST SWAP1 POP DUP3 DUP2 MSTORE PUSH1 0x20 DUP2 ADD DUP5 DUP5 DUP5 ADD GT ISZERO PUSH2 0x422 JUMPI PUSH2 0x421 PUSH2 0x322 JUMP JUMPDEST JUMPDEST PUSH2 0x42D DUP5 DUP3 DUP6 PUSH2 0x3E4 JUMP JUMPDEST POP SWAP4 SWAP3 POP POP POP JUMP JUMPDEST PUSH1 0x0 DUP3 PUSH1 0x1F DUP4 ADD SLT PUSH2 0x44A JUMPI PUSH2 0x449 PUSH2 0x31D JUMP JUMPDEST JUMPDEST DUP2 CALLDATALOAD PUSH2 0x45A DUP5 DUP3 PUSH1 0x20 DUP7 ADD PUSH2 0x3F3 JUMP JUMPDEST SWAP2 POP POP SWAP3 SWAP2 POP POP JUMP JUMPDEST PUSH1 0x0 PUSH20 0xFFFFFFFFFFFFFFFFFFFFFFFFFFFFFFFFFFFFFFFF DUP3 AND SWAP1 POP SWAP2 SWAP1 POP JUMP JUMPDEST PUSH1 0x0 PUSH2 0x48E DUP3 PUSH2 0x463 JUMP JUMPDEST SWAP1 POP SWAP2 SWAP1 POP JUMP JUMPDEST PUSH2 0x49E DUP2 PUSH2 0x483 JUMP JUMPDEST DUP2 EQ PUSH2 0x4A9 JUMPI PUSH1 0x0 DUP1 REVERT JUMPDEST POP JUMP JUMPDEST PUSH1 0x0 DUP2 CALLDATALOAD SWAP1 POP PUSH2 0x4BB DUP2 PUSH2 0x495 JUMP JUMPDEST SWAP3 SWAP2 POP POP JUMP JUMPDEST PUSH1 0x0 DUP1 PUSH1 0x40 DUP4 DUP6 SUB SLT ISZERO PUSH2 0x4D8 JUMPI PUSH2 0x4D7 PUSH2 0x313 JUMP JUMPDEST JUMPDEST PUSH1 0x0 DUP4 ADD CALLDATALOAD PUSH8 0xFFFFFFFFFFFFFFFF DUP2 GT ISZERO PUSH2 0x4F6 JUMPI PUSH2 0x4F5 PUSH2 0x318 JUMP JUMPDEST JUMPDEST PUSH2 0x502 DUP6 DUP3 DUP7 ADD PUSH2 0x435 JUMP JUMPDEST SWAP3 POP POP PUSH1 0x20 PUSH2 0x513 DUP6 DUP3 DUP7 ADD PUSH2 0x4AC JUMP JUMPDEST SWAP2 POP POP SWAP3 POP SWAP3 SWAP1 POP JUMP JUMPDEST PUSH1 0x0 PUSH1 0x20 DUP3 DUP5 SUB SLT ISZERO PUSH2 0x533 JUMPI PUSH2 0x532 PUSH2 0x313 JUMP JUMPDEST JUMPDEST PUSH1 0x0 DUP3 ADD CALLDATALOAD PUSH8 0xFFFFFFFFFFFFFFFF DUP2 GT ISZERO PUSH2 0x551 JUMPI PUSH2 0x550 PUSH2 0x318 JUMP JUMPDEST JUMPDEST PUSH2 0x55D DUP5 DUP3 DUP6 ADD PUSH2 0x435 JUMP JUMPDEST SWAP2 POP POP SWAP3 SWAP2 POP POP JUMP JUMPDEST PUSH1 0x0 DUP2 MLOAD SWAP1 POP SWAP2 SWAP1 POP JUMP JUMPDEST PUSH1 0x0 DUP3 DUP3 MSTORE PUSH1 0x20 DUP3 ADD SWAP1 POP SWAP3 SWAP2 POP POP JUMP JUMPDEST PUSH1 0x0 JUMPDEST DUP4 DUP2 LT ISZERO PUSH2 0x5A0 JUMPI DUP1 DUP3 ADD MLOAD DUP2 DUP5 ADD MSTORE PUSH1 0x20 DUP2 ADD SWAP1 POP PUSH2 0x585 JUMP JUMPDEST PUSH1 0x0 DUP5 DUP5 ADD MSTORE POP POP POP POP JUMP JUMPDEST PUSH1 0x0 PUSH2 0x5B7 DUP3 PUSH2 0x566 JUMP JUMPDEST PUSH2 0x5C1 DUP2 DUP6 PUSH2 0x571 JUMP JUMPDEST SWAP4 POP PUSH2 0x5D1 DUP2 DUP6 PUSH1 0x20 DUP7 ADD PUSH2 0x582 JUMP JUMPDEST PUSH2 0x5DA DUP2 PUSH2 0x327 JUMP JUMPDEST DUP5 ADD SWAP2 POP POP SWAP3 SWAP2 POP POP JUMP JUMPDEST PUSH1 0x0 PUSH1 0x20 DUP3 ADD SWAP1 POP DUP2 DUP2 SUB PUSH1 0x0 DUP4 ADD MSTORE PUSH2 0x5FF DUP2 DUP5 PUSH2 0x5AC JUMP JUMPDEST SWAP1 POP SWAP3 SWAP2 POP POP JUMP JUMPDEST PUSH32 0x4E487B7100000000000000000000000000000000000000000000000000000000 PUSH1 0x0 MSTORE PUSH1 0x22 PUSH1 0x4 MSTORE PUSH1 0x24 PUSH1 0x0 REVERT JUMPDEST PUSH1 0x0 PUSH1 0x2 DUP3 DIV SWAP1 POP PUSH1 0x1 DUP3 AND DUP1 PUSH2 0x64E JUMPI PUSH1 0x7F DUP3 AND SWAP2 POP JUMPDEST PUSH1 0x20 DUP3 LT DUP2 SUB PUSH2 0x661 JUMPI PUSH2 0x660 PUSH2 0x607 JUMP JUMPDEST JUMPDEST POP SWAP2 SWAP1 POP JUMP JUMPDEST PUSH1 0x0 DUP2 SWAP1 POP DUP2 PUSH1 0x0 MSTORE PUSH1 0x20 PUSH1 0x0 KECCAK256 SWAP1 POP SWAP2 SWAP1 POP JUMP JUMPDEST PUSH1 0x0 PUSH1 0x20 PUSH1 0x1F DUP4 ADD DIV SWAP1 POP SWAP2 SWAP1 POP JUMP JUMPDEST PUSH1 0x0 DUP3 DUP3 SHL SWAP1 POP SWAP3 SWAP2 POP POP JUMP JUMPDEST PUSH1 0x0 PUSH1 0x8 DUP4 MUL PUSH2 0x6C9 PUSH32 0xFFFFFFFFFFFFFFFFFFFFFFFFFFFFFFFFFFFFFFFFFFFFFFFFFFFFFFFFFFFFFFFF DUP3 PUSH2 0x68C JUMP JUMPDEST PUSH2 0x6D3 DUP7 DUP4 PUSH2 0x68C JUMP JUMPDEST SWAP6 POP DUP1 NOT DUP5 AND SWAP4 POP DUP1 DUP7 AND DUP5 OR SWAP3 POP POP POP SWAP4 SWAP3 POP POP POP JUMP JUMPDEST PUSH1 0x0 DUP2 SWAP1 POP SWAP2 SWAP1 POP JUMP JUMPDEST PUSH1 0x0 DUP2 SWAP1 POP SWAP2 SWAP1 POP JUMP JUMPDEST PUSH1 0x0 PUSH2 0x71A PUSH2 0x715 PUSH2 0x710 DUP5 PUSH2 0x6EB JUMP JUMPDEST PUSH2 0x6F5 JUMP JUMPDEST PUSH2 0x6EB JUMP JUMPDEST SWAP1 POP SWAP2 SWAP1 POP JUMP JUMPDEST PUSH1 0x0 DUP2 SWAP1 POP SWAP2 SWAP1 POP JUMP JUMPDEST PUSH2 0x734 DUP4 PUSH2 0x6FF JUMP JUMPDEST PUSH2 0x748 PUSH2 0x740 DUP3 PUSH2 0x721 JUMP JUMPDEST DUP5 DUP5 SLOAD PUSH2 0x699 JUMP JUMPDEST DUP3 SSTORE POP POP POP POP JUMP JUMPDEST PUSH1 0x0 SWAP1 JUMP JUMPDEST PUSH2 0x75D PUSH2 0x750 JUMP JUMPDEST PUSH2 0x768 DUP2 DUP5 DUP5 PUSH2 0x72B JUMP JUMPDEST POP POP POP JUMP JUMPDEST JUMPDEST DUP2 DUP2 LT ISZERO PUSH2 0x78C JUMPI PUSH2 0x781 PUSH1 0x0 DUP3 PUSH2 0x755 JUMP JUMPDEST PUSH1 0x1 DUP2 ADD SWAP1 POP PUSH2 0x76E JUMP JUMPDEST POP POP JUMP JUMPDEST PUSH1 0x1F DUP3 GT ISZERO PUSH2 0x7D1 JUMPI PUSH2 0x7A2 DUP2 PUSH2 0x667 JUMP JUMPDEST PUSH2 0x7AB DUP5 PUSH2 0x67C JUMP JUMPDEST DUP2 ADD PUSH1 0x20 DUP6 LT ISZERO PUSH2 0x7BA JUMPI DUP2 SWAP1 POP JUMPDEST PUSH2 0x7CE PUSH2 0x7C6 DUP6 PUSH2 0x67C JUMP JUMPDEST DUP4 ADD DUP3 PUSH2 0x76D JUMP JUMPDEST POP POP JUMPDEST POP POP POP JUMP JUMPDEST PUSH1 0x0 DUP3 DUP3 SHR SWAP1 POP SWAP3 SWAP2 POP POP JUMP JUMPDEST PUSH1 0x0 PUSH2 0x7F4 PUSH1 0x0 NOT DUP5 PUSH1 0x8 MUL PUSH2 0x7D6 JUMP JUMPDEST NOT DUP1 DUP4 AND SWAP2 POP POP SWAP3 SWAP2 POP POP JUMP JUMPDEST PUSH1 0x0 PUSH2 0x80D DUP4 DUP4 PUSH2 0x7E3 JUMP JUMPDEST SWAP2 POP DUP3 PUSH1 0x2 MUL DUP3 OR SWAP1 POP SWAP3 SWAP2 POP POP JUMP JUMPDEST PUSH2 0x826 DUP3 PUSH2 0x566 JUMP JUMPDEST PUSH8 0xFFFFFFFFFFFFFFFF DUP2 GT ISZERO PUSH2 0x83F JUMPI PUSH2 0x83E PUSH2 0x338 JUMP JUMPDEST JUMPDEST PUSH2 0x849 DUP3 SLOAD PUSH2 0x636 JUMP JUMPDEST PUSH2 0x854 DUP3 DUP3 DUP6 PUSH2 0x790 JUMP JUMPDEST PUSH1 0x0 PUSH1 0x20 SWAP1 POP PUSH1 0x1F DUP4 GT PUSH1 0x1 DUP2 EQ PUSH2 0x887 JUMPI PUSH1 0x0 DUP5 ISZERO PUSH2 0x875 JUMPI DUP3 DUP8 ADD MLOAD SWAP1 POP JUMPDEST PUSH2 0x87F DUP6 DUP3 PUSH2 0x801 JUMP JUMPDEST DUP7 SSTORE POP PUSH2 0x8E7 JUMP JUMPDEST PUSH1 0x1F NOT DUP5 AND PUSH2 0x895 DUP7 PUSH2 0x667 JUMP JUMPDEST PUSH1 0x0 JUMPDEST DUP3 DUP2 LT ISZERO PUSH2 0x8BD JUMPI DUP5 DUP10 ADD MLOAD DUP3 SSTORE PUSH1 0x1 DUP3 ADD SWAP2 POP PUSH1 0x20 DUP6 ADD SWAP5 POP PUSH1 0x20 DUP2 ADD SWAP1 POP PUSH2 0x898 JUMP JUMPDEST DUP7 DUP4 LT ISZERO PUSH2 0x8DA JUMPI DUP5 DUP10 ADD MLOAD PUSH2 0x8D6 PUSH1 0x1F DUP10 AND DUP3 PUSH2 0x7E3 JUMP JUMPDEST DUP4 SSTORE POP JUMPDEST PUSH1 0x1 PUSH1 0x2 DUP9 MUL ADD DUP9 SSTORE POP POP POP JUMPDEST POP POP POP POP POP POP JUMP JUMPDEST PUSH2 0x8F8 DUP2 PUSH2 0x483 JUMP JUMPDEST DUP3 MSTORE POP POP JUMP JUMPDEST PUSH1 0x0 PUSH1 0xA0 DUP3 ADD SWAP1 POP PUSH2 0x913 PUSH1 0x0 DUP4 ADD DUP9 PUSH2 0x8EF JUMP JUMPDEST PUSH2 0x920 PUSH1 0x20 DUP4 ADD DUP8 PUSH2 0x8EF JUMP JUMPDEST PUSH2 0x92D PUSH1 0x40 DUP4 ADD DUP7 PUSH2 0x8EF JUMP JUMPDEST PUSH2 0x93A PUSH1 0x60 DUP4 ADD DUP6 PUSH2 0x8EF JUMP JUMPDEST DUP2 DUP2 SUB PUSH1 0x80 DUP4 ADD MSTORE PUSH2 0x94C DUP2 DUP5 PUSH2 0x5AC JUMP JUMPDEST SWAP1 POP SWAP7 SWAP6 POP POP POP POP POP POP JUMP JUMPDEST PUSH1 0x0 DUP2 MLOAD SWAP1 POP PUSH2 0x967 DUP2 PUSH2 0x495 JUMP JUMPDEST SWAP3 SWAP2 POP POP JUMP JUMPDEST PUSH1 0x0 PUSH1 0x20 DUP3 DUP5 SUB SLT ISZERO PUSH2 0x983 JUMPI PUSH2 0x982 PUSH2 0x313 JUMP JUMPDEST JUMPDEST PUSH1 0x0 PUSH2 0x991 DUP5 DUP3 DUP6 ADD PUSH2 0x958 JUMP JUMPDEST SWAP2 POP POP SWAP3 SWAP2 POP POP JUMP INVALID LOG2 PUSH5 0x6970667358 0x22 SLT KECCAK256 0xBA 0xD2 SIGNEXTEND CALLCODE EXTCODECOPY 0xE9 PUSH13 0x52A5A7F992EDF2556ED5E10E28 0xC8 INVALID PUSH25 0x4E7B6AE4D5712101DC64736F6C634300081100330000000000 "
				},
				"gasEstimates": {
					"creation": {
						"codeDepositCost": "502400",
						"executionCost": "infinite",
						"totalCost": "infinite"
					},
					"external": {
						"greet()": "infinite",
						"setGreeting(string)": "infinite",
						"setGreeting(string,address)": "infinite"
					},
					"internal": {
						"getXorig()": "infinite"
					}
				},
				"methodIdentifiers": {
					"greet()": "cfae3217",
					"setGreeting(string)": "a4136862",
					"setGreeting(string,address)": "8d86c2ad"
				}
			},
			"storageLayout": {
				"storage": [
					{
						"astId": 39,
						"contract": "Two Chain/greeterL2.sol:Greeter",
						"label": "greeting",
						"offset": 0,
						"slot": "0",
						"type": "t_string_storage"
					}
				],
				"types": {
					"t_string_storage": {
						"encoding": "bytes",
						"label": "string",
						"numberOfBytes": "32"
					}
				}
			},
			"userdoc": {
				"kind": "user",
				"methods": {},
				"version": 1
			}
		}
	}
}